{
  "address": "0x8f4aAe8c0a13366EA38d302Ded023D097f515890",
  "abi": [
    {
      "inputs": [
        {
          "internalType": "address",
          "name": "endpoint",
          "type": "address"
        }
      ],
      "stateMutability": "nonpayable",
      "type": "constructor"
    },
    {
      "inputs": [],
      "name": "AccessControlBadConfirmation",
      "type": "error"
    },
    {
      "inputs": [
        {
          "internalType": "address",
          "name": "account",
          "type": "address"
        },
        {
          "internalType": "bytes32",
          "name": "neededRole",
          "type": "bytes32"
        }
      ],
      "name": "AccessControlUnauthorizedAccount",
      "type": "error"
    },
    {
      "inputs": [
        {
          "internalType": "address",
          "name": "spender",
          "type": "address"
        },
        {
          "internalType": "uint256",
          "name": "allowance",
          "type": "uint256"
        },
        {
          "internalType": "uint256",
          "name": "needed",
          "type": "uint256"
        }
      ],
      "name": "ERC20InsufficientAllowance",
      "type": "error"
    },
    {
      "inputs": [
        {
          "internalType": "address",
          "name": "sender",
          "type": "address"
        },
        {
          "internalType": "uint256",
          "name": "balance",
          "type": "uint256"
        },
        {
          "internalType": "uint256",
          "name": "needed",
          "type": "uint256"
        }
      ],
      "name": "ERC20InsufficientBalance",
      "type": "error"
    },
    {
      "inputs": [
        {
          "internalType": "address",
          "name": "approver",
          "type": "address"
        }
      ],
      "name": "ERC20InvalidApprover",
      "type": "error"
    },
    {
      "inputs": [
        {
          "internalType": "address",
          "name": "receiver",
          "type": "address"
        }
      ],
      "name": "ERC20InvalidReceiver",
      "type": "error"
    },
    {
      "inputs": [
        {
          "internalType": "address",
          "name": "sender",
          "type": "address"
        }
      ],
      "name": "ERC20InvalidSender",
      "type": "error"
    },
    {
      "inputs": [
        {
          "internalType": "address",
          "name": "spender",
          "type": "address"
        }
      ],
      "name": "ERC20InvalidSpender",
      "type": "error"
    },
    {
      "inputs": [],
      "name": "EnforcedPause",
      "type": "error"
    },
    {
      "inputs": [],
      "name": "ExpectedPause",
      "type": "error"
    },
    {
      "inputs": [],
      "name": "InboundRateLimitExceeded",
      "type": "error"
    },
    {
      "inputs": [],
      "name": "InvalidDelegate",
      "type": "error"
    },
    {
      "inputs": [],
      "name": "InvalidEndpointCall",
      "type": "error"
    },
    {
      "inputs": [],
      "name": "InvalidInitialization",
      "type": "error"
    },
    {
      "inputs": [],
      "name": "InvalidLocalDecimals",
      "type": "error"
    },
    {
      "inputs": [
        {
          "internalType": "bytes",
          "name": "options",
          "type": "bytes"
        }
      ],
      "name": "InvalidOptions",
      "type": "error"
    },
    {
      "inputs": [],
      "name": "LzTokenUnavailable",
      "type": "error"
    },
    {
      "inputs": [
        {
          "internalType": "uint32",
          "name": "eid",
          "type": "uint32"
        }
      ],
      "name": "NoPeer",
      "type": "error"
    },
    {
      "inputs": [
        {
          "internalType": "uint256",
          "name": "msgValue",
          "type": "uint256"
        }
      ],
      "name": "NotEnoughNative",
      "type": "error"
    },
    {
      "inputs": [],
      "name": "NotInitializing",
      "type": "error"
    },
    {
      "inputs": [
        {
          "internalType": "address",
          "name": "addr",
          "type": "address"
        }
      ],
      "name": "OnlyEndpoint",
      "type": "error"
    },
    {
      "inputs": [
        {
          "internalType": "uint32",
          "name": "eid",
          "type": "uint32"
        },
        {
          "internalType": "bytes32",
          "name": "sender",
          "type": "bytes32"
        }
      ],
      "name": "OnlyPeer",
      "type": "error"
    },
    {
      "inputs": [],
      "name": "OnlySelf",
      "type": "error"
    },
    {
      "inputs": [],
      "name": "OutboundRateLimitExceeded",
      "type": "error"
    },
    {
      "inputs": [
        {
          "internalType": "address",
          "name": "owner",
          "type": "address"
        }
      ],
      "name": "OwnableInvalidOwner",
      "type": "error"
    },
    {
      "inputs": [
        {
          "internalType": "address",
          "name": "account",
          "type": "address"
        }
      ],
      "name": "OwnableUnauthorizedAccount",
      "type": "error"
    },
    {
      "inputs": [
        {
          "internalType": "address",
          "name": "token",
          "type": "address"
        }
      ],
      "name": "SafeERC20FailedOperation",
      "type": "error"
    },
    {
      "inputs": [
        {
          "internalType": "bytes",
          "name": "result",
          "type": "bytes"
        }
      ],
      "name": "SimulationResult",
      "type": "error"
    },
    {
      "inputs": [
        {
          "internalType": "uint256",
          "name": "amountLD",
          "type": "uint256"
        },
        {
          "internalType": "uint256",
          "name": "minAmountLD",
          "type": "uint256"
        }
      ],
      "name": "SlippageExceeded",
      "type": "error"
    },
    {
      "anonymous": false,
      "inputs": [
        {
          "indexed": true,
          "internalType": "address",
          "name": "owner",
          "type": "address"
        },
        {
          "indexed": true,
          "internalType": "address",
          "name": "spender",
          "type": "address"
        },
        {
          "indexed": false,
          "internalType": "uint256",
          "name": "value",
          "type": "uint256"
        }
      ],
      "name": "Approval",
      "type": "event"
    },
    {
      "anonymous": false,
      "inputs": [
        {
          "components": [
            {
              "internalType": "uint32",
              "name": "eid",
              "type": "uint32"
            },
            {
              "internalType": "uint16",
              "name": "msgType",
              "type": "uint16"
            },
            {
              "internalType": "bytes",
              "name": "options",
              "type": "bytes"
            }
          ],
          "indexed": false,
          "internalType": "struct EnforcedOptionParam[]",
          "name": "_enforcedOptions",
          "type": "tuple[]"
        }
      ],
      "name": "EnforcedOptionSet",
      "type": "event"
    },
    {
      "anonymous": false,
      "inputs": [
        {
          "components": [
            {
              "internalType": "uint32",
              "name": "peerEid",
              "type": "uint32"
            },
            {
              "internalType": "uint256",
              "name": "limit",
              "type": "uint256"
            },
            {
              "internalType": "uint256",
              "name": "window",
              "type": "uint256"
            }
          ],
          "indexed": false,
          "internalType": "struct PairwiseRateLimiter.RateLimitConfig[]",
          "name": "rateLimitConfigs",
          "type": "tuple[]"
        }
      ],
      "name": "InboundRateLimitsChanged",
      "type": "event"
    },
    {
      "anonymous": false,
      "inputs": [
        {
          "indexed": false,
          "internalType": "uint64",
          "name": "version",
          "type": "uint64"
        }
      ],
      "name": "Initialized",
      "type": "event"
    },
    {
      "anonymous": false,
      "inputs": [
        {
          "indexed": false,
          "internalType": "address",
          "name": "inspector",
          "type": "address"
        }
      ],
      "name": "MsgInspectorSet",
      "type": "event"
    },
    {
      "anonymous": false,
      "inputs": [
        {
          "indexed": true,
          "internalType": "bytes32",
          "name": "guid",
          "type": "bytes32"
        },
        {
          "indexed": false,
          "internalType": "uint32",
          "name": "srcEid",
          "type": "uint32"
        },
        {
          "indexed": true,
          "internalType": "address",
          "name": "toAddress",
          "type": "address"
        },
        {
          "indexed": false,
          "internalType": "uint256",
          "name": "amountReceivedLD",
          "type": "uint256"
        }
      ],
      "name": "OFTReceived",
      "type": "event"
    },
    {
      "anonymous": false,
      "inputs": [
        {
          "indexed": true,
          "internalType": "bytes32",
          "name": "guid",
          "type": "bytes32"
        },
        {
          "indexed": false,
          "internalType": "uint32",
          "name": "dstEid",
          "type": "uint32"
        },
        {
          "indexed": true,
          "internalType": "address",
          "name": "fromAddress",
          "type": "address"
        },
        {
          "indexed": false,
          "internalType": "uint256",
          "name": "amountSentLD",
          "type": "uint256"
        },
        {
          "indexed": false,
          "internalType": "uint256",
          "name": "amountReceivedLD",
          "type": "uint256"
        }
      ],
      "name": "OFTSent",
      "type": "event"
    },
    {
      "anonymous": false,
      "inputs": [
        {
          "components": [
            {
              "internalType": "uint32",
              "name": "peerEid",
              "type": "uint32"
            },
            {
              "internalType": "uint256",
              "name": "limit",
              "type": "uint256"
            },
            {
              "internalType": "uint256",
              "name": "window",
              "type": "uint256"
            }
          ],
          "indexed": false,
          "internalType": "struct PairwiseRateLimiter.RateLimitConfig[]",
          "name": "rateLimitConfigs",
          "type": "tuple[]"
        }
      ],
      "name": "OutboundRateLimitsChanged",
      "type": "event"
    },
    {
      "anonymous": false,
      "inputs": [
        {
          "indexed": true,
          "internalType": "address",
          "name": "previousOwner",
          "type": "address"
        },
        {
          "indexed": true,
          "internalType": "address",
          "name": "newOwner",
          "type": "address"
        }
      ],
      "name": "OwnershipTransferred",
      "type": "event"
    },
    {
      "anonymous": false,
      "inputs": [
        {
          "indexed": false,
          "internalType": "address",
          "name": "account",
          "type": "address"
        }
      ],
      "name": "Paused",
      "type": "event"
    },
    {
      "anonymous": false,
      "inputs": [
        {
          "indexed": false,
          "internalType": "uint32",
          "name": "eid",
          "type": "uint32"
        },
        {
          "indexed": false,
          "internalType": "bytes32",
          "name": "peer",
          "type": "bytes32"
        }
      ],
      "name": "PeerSet",
      "type": "event"
    },
    {
      "anonymous": false,
      "inputs": [
        {
          "indexed": false,
          "internalType": "address",
          "name": "preCrimeAddress",
          "type": "address"
        }
      ],
      "name": "PreCrimeSet",
      "type": "event"
    },
    {
      "anonymous": false,
      "inputs": [
        {
          "indexed": true,
          "internalType": "bytes32",
          "name": "role",
          "type": "bytes32"
        },
        {
          "indexed": true,
          "internalType": "bytes32",
          "name": "previousAdminRole",
          "type": "bytes32"
        },
        {
          "indexed": true,
          "internalType": "bytes32",
          "name": "newAdminRole",
          "type": "bytes32"
        }
      ],
      "name": "RoleAdminChanged",
      "type": "event"
    },
    {
      "anonymous": false,
      "inputs": [
        {
          "indexed": true,
          "internalType": "bytes32",
          "name": "role",
          "type": "bytes32"
        },
        {
          "indexed": true,
          "internalType": "address",
          "name": "account",
          "type": "address"
        },
        {
          "indexed": true,
          "internalType": "address",
          "name": "sender",
          "type": "address"
        }
      ],
      "name": "RoleGranted",
      "type": "event"
    },
    {
      "anonymous": false,
      "inputs": [
        {
          "indexed": true,
          "internalType": "bytes32",
          "name": "role",
          "type": "bytes32"
        },
        {
          "indexed": true,
          "internalType": "address",
          "name": "account",
          "type": "address"
        },
        {
          "indexed": true,
          "internalType": "address",
          "name": "sender",
          "type": "address"
        }
      ],
      "name": "RoleRevoked",
      "type": "event"
    },
    {
      "anonymous": false,
      "inputs": [
        {
          "indexed": true,
          "internalType": "address",
          "name": "from",
          "type": "address"
        },
        {
          "indexed": true,
          "internalType": "address",
          "name": "to",
          "type": "address"
        },
        {
          "indexed": false,
          "internalType": "uint256",
          "name": "value",
          "type": "uint256"
        }
      ],
      "name": "Transfer",
      "type": "event"
    },
    {
      "anonymous": false,
      "inputs": [
        {
          "indexed": false,
          "internalType": "address",
          "name": "account",
          "type": "address"
        }
      ],
      "name": "Unpaused",
      "type": "event"
    },
    {
      "inputs": [],
      "name": "DEFAULT_ADMIN_ROLE",
      "outputs": [
        {
          "internalType": "bytes32",
          "name": "",
          "type": "bytes32"
        }
      ],
      "stateMutability": "view",
      "type": "function"
    },
    {
      "inputs": [],
      "name": "MINTER_ROLE",
      "outputs": [
        {
          "internalType": "bytes32",
          "name": "",
          "type": "bytes32"
        }
      ],
      "stateMutability": "view",
      "type": "function"
    },
    {
      "inputs": [],
      "name": "PAUSER_ROLE",
      "outputs": [
        {
          "internalType": "bytes32",
          "name": "",
          "type": "bytes32"
        }
      ],
      "stateMutability": "view",
      "type": "function"
    },
    {
      "inputs": [],
      "name": "SEND",
      "outputs": [
        {
          "internalType": "uint16",
          "name": "",
          "type": "uint16"
        }
      ],
      "stateMutability": "view",
      "type": "function"
    },
    {
      "inputs": [],
      "name": "SEND_AND_CALL",
      "outputs": [
        {
          "internalType": "uint16",
          "name": "",
          "type": "uint16"
        }
      ],
      "stateMutability": "view",
      "type": "function"
    },
    {
      "inputs": [],
      "name": "UNPAUSER_ROLE",
      "outputs": [
        {
          "internalType": "bytes32",
          "name": "",
          "type": "bytes32"
        }
      ],
      "stateMutability": "view",
      "type": "function"
    },
    {
      "inputs": [
        {
          "components": [
            {
              "internalType": "uint32",
              "name": "srcEid",
              "type": "uint32"
            },
            {
              "internalType": "bytes32",
              "name": "sender",
              "type": "bytes32"
            },
            {
              "internalType": "uint64",
              "name": "nonce",
              "type": "uint64"
            }
          ],
          "internalType": "struct Origin",
          "name": "origin",
          "type": "tuple"
        }
      ],
      "name": "allowInitializePath",
      "outputs": [
        {
          "internalType": "bool",
          "name": "",
          "type": "bool"
        }
      ],
      "stateMutability": "view",
      "type": "function"
    },
    {
      "inputs": [
        {
          "internalType": "address",
          "name": "owner",
          "type": "address"
        },
        {
          "internalType": "address",
          "name": "spender",
          "type": "address"
        }
      ],
      "name": "allowance",
      "outputs": [
        {
          "internalType": "uint256",
          "name": "",
          "type": "uint256"
        }
      ],
      "stateMutability": "view",
      "type": "function"
    },
    {
      "inputs": [],
      "name": "approvalRequired",
      "outputs": [
        {
          "internalType": "bool",
          "name": "",
          "type": "bool"
        }
      ],
      "stateMutability": "pure",
      "type": "function"
    },
    {
      "inputs": [
        {
          "internalType": "address",
          "name": "spender",
          "type": "address"
        },
        {
          "internalType": "uint256",
          "name": "value",
          "type": "uint256"
        }
      ],
      "name": "approve",
      "outputs": [
        {
          "internalType": "bool",
          "name": "",
          "type": "bool"
        }
      ],
      "stateMutability": "nonpayable",
      "type": "function"
    },
    {
      "inputs": [
        {
          "internalType": "address",
          "name": "account",
          "type": "address"
        }
      ],
      "name": "balanceOf",
      "outputs": [
        {
          "internalType": "uint256",
          "name": "",
          "type": "uint256"
        }
      ],
      "stateMutability": "view",
      "type": "function"
    },
    {
      "inputs": [
        {
          "internalType": "uint32",
          "name": "_eid",
          "type": "uint32"
        },
        {
          "internalType": "uint16",
          "name": "_msgType",
          "type": "uint16"
        },
        {
          "internalType": "bytes",
          "name": "_extraOptions",
          "type": "bytes"
        }
      ],
      "name": "combineOptions",
      "outputs": [
        {
          "internalType": "bytes",
          "name": "",
          "type": "bytes"
        }
      ],
      "stateMutability": "view",
      "type": "function"
    },
    {
      "inputs": [],
      "name": "composeMsgSender",
      "outputs": [
        {
          "internalType": "address",
          "name": "sender",
          "type": "address"
        }
      ],
      "stateMutability": "view",
      "type": "function"
    },
    {
      "inputs": [],
      "name": "decimalConversionRate",
      "outputs": [
        {
          "internalType": "uint256",
          "name": "",
          "type": "uint256"
        }
      ],
      "stateMutability": "view",
      "type": "function"
    },
    {
      "inputs": [],
      "name": "decimals",
      "outputs": [
        {
          "internalType": "uint8",
          "name": "",
          "type": "uint8"
        }
      ],
      "stateMutability": "view",
      "type": "function"
    },
    {
      "inputs": [],
      "name": "endpoint",
      "outputs": [
        {
          "internalType": "contract ILayerZeroEndpointV2",
          "name": "",
          "type": "address"
        }
      ],
      "stateMutability": "view",
      "type": "function"
    },
    {
      "inputs": [
        {
          "internalType": "uint32",
          "name": "_eid",
          "type": "uint32"
        },
        {
          "internalType": "uint16",
          "name": "_msgType",
          "type": "uint16"
        }
      ],
      "name": "enforcedOptions",
      "outputs": [
        {
          "internalType": "bytes",
          "name": "",
          "type": "bytes"
        }
      ],
      "stateMutability": "view",
      "type": "function"
    },
    {
      "inputs": [
        {
          "internalType": "uint32",
          "name": "_srcEid",
          "type": "uint32"
        }
      ],
      "name": "getAmountCanBeReceived",
      "outputs": [
        {
          "internalType": "uint256",
          "name": "inboundAmountInFlight",
          "type": "uint256"
        },
        {
          "internalType": "uint256",
          "name": "amountCanBeReceived",
          "type": "uint256"
        }
      ],
      "stateMutability": "view",
      "type": "function"
    },
    {
      "inputs": [
        {
          "internalType": "uint32",
          "name": "_dstEid",
          "type": "uint32"
        }
      ],
      "name": "getAmountCanBeSent",
      "outputs": [
        {
          "internalType": "uint256",
          "name": "outboundAmountInFlight",
          "type": "uint256"
        },
        {
          "internalType": "uint256",
          "name": "amountCanBeSent",
          "type": "uint256"
        }
      ],
      "stateMutability": "view",
      "type": "function"
    },
    {
      "inputs": [
        {
          "internalType": "bytes32",
          "name": "role",
          "type": "bytes32"
        }
      ],
      "name": "getRoleAdmin",
      "outputs": [
        {
          "internalType": "bytes32",
          "name": "",
          "type": "bytes32"
        }
      ],
      "stateMutability": "view",
      "type": "function"
    },
    {
      "inputs": [
        {
          "internalType": "bytes32",
          "name": "role",
          "type": "bytes32"
        },
        {
          "internalType": "address",
          "name": "account",
          "type": "address"
        }
      ],
      "name": "grantRole",
      "outputs": [],
      "stateMutability": "nonpayable",
      "type": "function"
    },
    {
      "inputs": [
        {
          "internalType": "bytes32",
          "name": "role",
          "type": "bytes32"
        },
        {
          "internalType": "address",
          "name": "account",
          "type": "address"
        }
      ],
      "name": "hasRole",
      "outputs": [
        {
          "internalType": "bool",
          "name": "",
          "type": "bool"
        }
      ],
      "stateMutability": "view",
      "type": "function"
    },
    {
      "inputs": [
        {
          "internalType": "uint32",
          "name": "srcEid",
          "type": "uint32"
        }
      ],
      "name": "inboundRateLimits",
      "outputs": [
        {
          "internalType": "uint256",
          "name": "amountInFlight",
          "type": "uint256"
        },
        {
          "internalType": "uint256",
          "name": "lastUpdated",
          "type": "uint256"
        },
        {
          "internalType": "uint256",
          "name": "limit",
          "type": "uint256"
        },
        {
          "internalType": "uint256",
          "name": "window",
          "type": "uint256"
        }
      ],
      "stateMutability": "view",
      "type": "function"
    },
    {
      "inputs": [
        {
          "internalType": "string",
          "name": "name",
          "type": "string"
        },
        {
          "internalType": "string",
          "name": "symbol",
          "type": "string"
        },
        {
          "internalType": "address",
          "name": "owner",
          "type": "address"
        }
      ],
      "name": "initialize",
      "outputs": [],
      "stateMutability": "nonpayable",
      "type": "function"
    },
    {
      "inputs": [
        {
          "internalType": "uint32",
          "name": "_eid",
          "type": "uint32"
        },
        {
          "internalType": "bytes32",
          "name": "_peer",
          "type": "bytes32"
        }
      ],
      "name": "isPeer",
      "outputs": [
        {
          "internalType": "bool",
          "name": "",
          "type": "bool"
        }
      ],
      "stateMutability": "view",
      "type": "function"
    },
    {
      "inputs": [
        {
          "components": [
            {
              "internalType": "uint32",
              "name": "srcEid",
              "type": "uint32"
            },
            {
              "internalType": "bytes32",
              "name": "sender",
              "type": "bytes32"
            },
            {
              "internalType": "uint64",
              "name": "nonce",
              "type": "uint64"
            }
          ],
          "internalType": "struct Origin",
          "name": "_origin",
          "type": "tuple"
        },
        {
          "internalType": "bytes32",
          "name": "_guid",
          "type": "bytes32"
        },
        {
          "internalType": "bytes",
          "name": "_message",
          "type": "bytes"
        },
        {
          "internalType": "address",
          "name": "_executor",
          "type": "address"
        },
        {
          "internalType": "bytes",
          "name": "_extraData",
          "type": "bytes"
        }
      ],
      "name": "lzReceive",
      "outputs": [],
      "stateMutability": "payable",
      "type": "function"
    },
    {
      "inputs": [
        {
          "components": [
            {
              "components": [
                {
                  "internalType": "uint32",
                  "name": "srcEid",
                  "type": "uint32"
                },
                {
                  "internalType": "bytes32",
                  "name": "sender",
                  "type": "bytes32"
                },
                {
                  "internalType": "uint64",
                  "name": "nonce",
                  "type": "uint64"
                }
              ],
              "internalType": "struct Origin",
              "name": "origin",
              "type": "tuple"
            },
            {
              "internalType": "uint32",
              "name": "dstEid",
              "type": "uint32"
            },
            {
              "internalType": "address",
              "name": "receiver",
              "type": "address"
            },
            {
              "internalType": "bytes32",
              "name": "guid",
              "type": "bytes32"
            },
            {
              "internalType": "uint256",
              "name": "value",
              "type": "uint256"
            },
            {
              "internalType": "address",
              "name": "executor",
              "type": "address"
            },
            {
              "internalType": "bytes",
              "name": "message",
              "type": "bytes"
            },
            {
              "internalType": "bytes",
              "name": "extraData",
              "type": "bytes"
            }
          ],
          "internalType": "struct InboundPacket[]",
          "name": "_packets",
          "type": "tuple[]"
        }
      ],
      "name": "lzReceiveAndRevert",
      "outputs": [],
      "stateMutability": "payable",
      "type": "function"
    },
    {
      "inputs": [
        {
          "components": [
            {
              "internalType": "uint32",
              "name": "srcEid",
              "type": "uint32"
            },
            {
              "internalType": "bytes32",
              "name": "sender",
              "type": "bytes32"
            },
            {
              "internalType": "uint64",
              "name": "nonce",
              "type": "uint64"
            }
          ],
          "internalType": "struct Origin",
          "name": "_origin",
          "type": "tuple"
        },
        {
          "internalType": "bytes32",
          "name": "_guid",
          "type": "bytes32"
        },
        {
          "internalType": "bytes",
          "name": "_message",
          "type": "bytes"
        },
        {
          "internalType": "address",
          "name": "_executor",
          "type": "address"
        },
        {
          "internalType": "bytes",
          "name": "_extraData",
          "type": "bytes"
        }
      ],
      "name": "lzReceiveSimulate",
      "outputs": [],
      "stateMutability": "payable",
      "type": "function"
    },
    {
      "inputs": [
        {
          "internalType": "address",
          "name": "_account",
          "type": "address"
        },
        {
          "internalType": "uint256",
          "name": "_amount",
          "type": "uint256"
        }
      ],
      "name": "mint",
      "outputs": [],
      "stateMutability": "nonpayable",
      "type": "function"
    },
    {
      "inputs": [],
      "name": "msgInspector",
      "outputs": [
        {
          "internalType": "address",
          "name": "",
          "type": "address"
        }
      ],
      "stateMutability": "view",
      "type": "function"
    },
    {
      "inputs": [],
      "name": "name",
      "outputs": [
        {
          "internalType": "string",
          "name": "",
          "type": "string"
        }
      ],
      "stateMutability": "view",
      "type": "function"
    },
    {
      "inputs": [
        {
          "internalType": "uint32",
          "name": "",
          "type": "uint32"
        },
        {
          "internalType": "bytes32",
          "name": "",
          "type": "bytes32"
        }
      ],
      "name": "nextNonce",
      "outputs": [
        {
          "internalType": "uint64",
          "name": "nonce",
          "type": "uint64"
        }
      ],
      "stateMutability": "view",
      "type": "function"
    },
    {
      "inputs": [],
      "name": "oApp",
      "outputs": [
        {
          "internalType": "address",
          "name": "",
          "type": "address"
        }
      ],
      "stateMutability": "view",
      "type": "function"
    },
    {
      "inputs": [],
      "name": "oAppVersion",
      "outputs": [
        {
          "internalType": "uint64",
          "name": "senderVersion",
          "type": "uint64"
        },
        {
          "internalType": "uint64",
          "name": "receiverVersion",
          "type": "uint64"
        }
      ],
      "stateMutability": "pure",
      "type": "function"
    },
    {
      "inputs": [],
      "name": "oftVersion",
      "outputs": [
        {
          "internalType": "bytes4",
          "name": "interfaceId",
          "type": "bytes4"
        },
        {
          "internalType": "uint64",
          "name": "version",
          "type": "uint64"
        }
      ],
      "stateMutability": "pure",
      "type": "function"
    },
    {
      "inputs": [
        {
          "internalType": "uint32",
          "name": "dstEid",
          "type": "uint32"
        }
      ],
      "name": "outboundRateLimits",
      "outputs": [
        {
          "internalType": "uint256",
          "name": "amountInFlight",
          "type": "uint256"
        },
        {
          "internalType": "uint256",
          "name": "lastUpdated",
          "type": "uint256"
        },
        {
          "internalType": "uint256",
          "name": "limit",
          "type": "uint256"
        },
        {
          "internalType": "uint256",
          "name": "window",
          "type": "uint256"
        }
      ],
      "stateMutability": "view",
      "type": "function"
    },
    {
      "inputs": [],
      "name": "owner",
      "outputs": [
        {
          "internalType": "address",
          "name": "",
          "type": "address"
        }
      ],
      "stateMutability": "view",
      "type": "function"
    },
    {
      "inputs": [],
      "name": "pauseBridge",
      "outputs": [],
      "stateMutability": "nonpayable",
      "type": "function"
    },
    {
      "inputs": [],
      "name": "paused",
      "outputs": [
        {
          "internalType": "bool",
          "name": "",
          "type": "bool"
        }
      ],
      "stateMutability": "view",
      "type": "function"
    },
    {
      "inputs": [
        {
          "internalType": "uint32",
          "name": "_eid",
          "type": "uint32"
        }
      ],
      "name": "peers",
      "outputs": [
        {
          "internalType": "bytes32",
          "name": "",
          "type": "bytes32"
        }
      ],
      "stateMutability": "view",
      "type": "function"
    },
    {
      "inputs": [],
      "name": "preCrime",
      "outputs": [
        {
          "internalType": "address",
          "name": "",
          "type": "address"
        }
      ],
      "stateMutability": "view",
      "type": "function"
    },
    {
      "inputs": [
        {
          "components": [
            {
              "internalType": "uint32",
              "name": "dstEid",
              "type": "uint32"
            },
            {
              "internalType": "bytes32",
              "name": "to",
              "type": "bytes32"
            },
            {
              "internalType": "uint256",
              "name": "amountLD",
              "type": "uint256"
            },
            {
              "internalType": "uint256",
              "name": "minAmountLD",
              "type": "uint256"
            },
            {
              "internalType": "bytes",
              "name": "extraOptions",
              "type": "bytes"
            },
            {
              "internalType": "bytes",
              "name": "composeMsg",
              "type": "bytes"
            },
            {
              "internalType": "bytes",
              "name": "oftCmd",
              "type": "bytes"
            }
          ],
          "internalType": "struct SendParam",
          "name": "_sendParam",
          "type": "tuple"
        }
      ],
      "name": "quoteOFT",
      "outputs": [
        {
          "components": [
            {
              "internalType": "uint256",
              "name": "minAmountLD",
              "type": "uint256"
            },
            {
              "internalType": "uint256",
              "name": "maxAmountLD",
              "type": "uint256"
            }
          ],
          "internalType": "struct OFTLimit",
          "name": "oftLimit",
          "type": "tuple"
        },
        {
          "components": [
            {
              "internalType": "int256",
              "name": "feeAmountLD",
              "type": "int256"
            },
            {
              "internalType": "string",
              "name": "description",
              "type": "string"
            }
          ],
          "internalType": "struct OFTFeeDetail[]",
          "name": "oftFeeDetails",
          "type": "tuple[]"
        },
        {
          "components": [
            {
              "internalType": "uint256",
              "name": "amountSentLD",
              "type": "uint256"
            },
            {
              "internalType": "uint256",
              "name": "amountReceivedLD",
              "type": "uint256"
            }
          ],
          "internalType": "struct OFTReceipt",
          "name": "oftReceipt",
          "type": "tuple"
        }
      ],
      "stateMutability": "view",
      "type": "function"
    },
    {
      "inputs": [
        {
          "components": [
            {
              "internalType": "uint32",
              "name": "dstEid",
              "type": "uint32"
            },
            {
              "internalType": "bytes32",
              "name": "to",
              "type": "bytes32"
            },
            {
              "internalType": "uint256",
              "name": "amountLD",
              "type": "uint256"
            },
            {
              "internalType": "uint256",
              "name": "minAmountLD",
              "type": "uint256"
            },
            {
              "internalType": "bytes",
              "name": "extraOptions",
              "type": "bytes"
            },
            {
              "internalType": "bytes",
              "name": "composeMsg",
              "type": "bytes"
            },
            {
              "internalType": "bytes",
              "name": "oftCmd",
              "type": "bytes"
            }
          ],
          "internalType": "struct SendParam",
          "name": "_sendParam",
          "type": "tuple"
        },
        {
          "internalType": "bool",
          "name": "_payInLzToken",
          "type": "bool"
        }
      ],
      "name": "quoteSend",
      "outputs": [
        {
          "components": [
            {
              "internalType": "uint256",
              "name": "nativeFee",
              "type": "uint256"
            },
            {
              "internalType": "uint256",
              "name": "lzTokenFee",
              "type": "uint256"
            }
          ],
          "internalType": "struct MessagingFee",
          "name": "msgFee",
          "type": "tuple"
        }
      ],
      "stateMutability": "view",
      "type": "function"
    },
    {
      "inputs": [],
      "name": "renounceOwnership",
      "outputs": [],
      "stateMutability": "nonpayable",
      "type": "function"
    },
    {
      "inputs": [
        {
          "internalType": "bytes32",
          "name": "role",
          "type": "bytes32"
        },
        {
          "internalType": "address",
          "name": "callerConfirmation",
          "type": "address"
        }
      ],
      "name": "renounceRole",
      "outputs": [],
      "stateMutability": "nonpayable",
      "type": "function"
    },
    {
      "inputs": [
        {
          "internalType": "bytes32",
          "name": "role",
          "type": "bytes32"
        },
        {
          "internalType": "address",
          "name": "account",
          "type": "address"
        }
      ],
      "name": "revokeRole",
      "outputs": [],
      "stateMutability": "nonpayable",
      "type": "function"
    },
    {
      "inputs": [
        {
          "components": [
            {
              "internalType": "uint32",
              "name": "dstEid",
              "type": "uint32"
            },
            {
              "internalType": "bytes32",
              "name": "to",
              "type": "bytes32"
            },
            {
              "internalType": "uint256",
              "name": "amountLD",
              "type": "uint256"
            },
            {
              "internalType": "uint256",
              "name": "minAmountLD",
              "type": "uint256"
            },
            {
              "internalType": "bytes",
              "name": "extraOptions",
              "type": "bytes"
            },
            {
              "internalType": "bytes",
              "name": "composeMsg",
              "type": "bytes"
            },
            {
              "internalType": "bytes",
              "name": "oftCmd",
              "type": "bytes"
            }
          ],
          "internalType": "struct SendParam",
          "name": "_sendParam",
          "type": "tuple"
        },
        {
          "components": [
            {
              "internalType": "uint256",
              "name": "nativeFee",
              "type": "uint256"
            },
            {
              "internalType": "uint256",
              "name": "lzTokenFee",
              "type": "uint256"
            }
          ],
          "internalType": "struct MessagingFee",
          "name": "_fee",
          "type": "tuple"
        },
        {
          "internalType": "address",
          "name": "_refundAddress",
          "type": "address"
        }
      ],
      "name": "send",
      "outputs": [
        {
          "components": [
            {
              "internalType": "bytes32",
              "name": "guid",
              "type": "bytes32"
            },
            {
              "internalType": "uint64",
              "name": "nonce",
              "type": "uint64"
            },
            {
              "components": [
                {
                  "internalType": "uint256",
                  "name": "nativeFee",
                  "type": "uint256"
                },
                {
                  "internalType": "uint256",
                  "name": "lzTokenFee",
                  "type": "uint256"
                }
              ],
              "internalType": "struct MessagingFee",
              "name": "fee",
              "type": "tuple"
            }
          ],
          "internalType": "struct MessagingReceipt",
          "name": "msgReceipt",
          "type": "tuple"
        },
        {
          "components": [
            {
              "internalType": "uint256",
              "name": "amountSentLD",
              "type": "uint256"
            },
            {
              "internalType": "uint256",
              "name": "amountReceivedLD",
              "type": "uint256"
            }
          ],
          "internalType": "struct OFTReceipt",
          "name": "oftReceipt",
          "type": "tuple"
        }
      ],
      "stateMutability": "payable",
      "type": "function"
    },
    {
      "inputs": [
        {
          "internalType": "address",
          "name": "_delegate",
          "type": "address"
        }
      ],
      "name": "setDelegate",
      "outputs": [],
      "stateMutability": "nonpayable",
      "type": "function"
    },
    {
      "inputs": [
        {
          "components": [
            {
              "internalType": "uint32",
              "name": "eid",
              "type": "uint32"
            },
            {
              "internalType": "uint16",
              "name": "msgType",
              "type": "uint16"
            },
            {
              "internalType": "bytes",
              "name": "options",
              "type": "bytes"
            }
          ],
          "internalType": "struct EnforcedOptionParam[]",
          "name": "_enforcedOptions",
          "type": "tuple[]"
        }
      ],
      "name": "setEnforcedOptions",
      "outputs": [],
      "stateMutability": "nonpayable",
      "type": "function"
    },
    {
      "inputs": [
        {
          "components": [
            {
              "internalType": "uint32",
              "name": "peerEid",
              "type": "uint32"
            },
            {
              "internalType": "uint256",
              "name": "limit",
              "type": "uint256"
            },
            {
              "internalType": "uint256",
              "name": "window",
              "type": "uint256"
            }
          ],
          "internalType": "struct PairwiseRateLimiter.RateLimitConfig[]",
          "name": "_rateLimitConfigs",
          "type": "tuple[]"
        }
      ],
      "name": "setInboundRateLimits",
      "outputs": [],
      "stateMutability": "nonpayable",
      "type": "function"
    },
    {
      "inputs": [
        {
          "internalType": "address",
          "name": "_msgInspector",
          "type": "address"
        }
      ],
      "name": "setMsgInspector",
      "outputs": [],
      "stateMutability": "nonpayable",
      "type": "function"
    },
    {
      "inputs": [
        {
          "components": [
            {
              "internalType": "uint32",
              "name": "peerEid",
              "type": "uint32"
            },
            {
              "internalType": "uint256",
              "name": "limit",
              "type": "uint256"
            },
            {
              "internalType": "uint256",
              "name": "window",
              "type": "uint256"
            }
          ],
          "internalType": "struct PairwiseRateLimiter.RateLimitConfig[]",
          "name": "_rateLimitConfigs",
          "type": "tuple[]"
        }
      ],
      "name": "setOutboundRateLimits",
      "outputs": [],
      "stateMutability": "nonpayable",
      "type": "function"
    },
    {
      "inputs": [
        {
          "internalType": "uint32",
          "name": "_eid",
          "type": "uint32"
        },
        {
          "internalType": "bytes32",
          "name": "_peer",
          "type": "bytes32"
        }
      ],
      "name": "setPeer",
      "outputs": [],
      "stateMutability": "nonpayable",
      "type": "function"
    },
    {
      "inputs": [
        {
          "internalType": "address",
          "name": "_preCrime",
          "type": "address"
        }
      ],
      "name": "setPreCrime",
      "outputs": [],
      "stateMutability": "nonpayable",
      "type": "function"
    },
    {
      "inputs": [],
      "name": "sharedDecimals",
      "outputs": [
        {
          "internalType": "uint8",
          "name": "",
          "type": "uint8"
        }
      ],
      "stateMutability": "pure",
      "type": "function"
    },
    {
      "inputs": [
        {
          "internalType": "bytes4",
          "name": "interfaceId",
          "type": "bytes4"
        }
      ],
      "name": "supportsInterface",
      "outputs": [
        {
          "internalType": "bool",
          "name": "",
          "type": "bool"
        }
      ],
      "stateMutability": "view",
      "type": "function"
    },
    {
      "inputs": [],
      "name": "symbol",
      "outputs": [
        {
          "internalType": "string",
          "name": "",
          "type": "string"
        }
      ],
      "stateMutability": "view",
      "type": "function"
    },
    {
      "inputs": [],
      "name": "token",
      "outputs": [
        {
          "internalType": "address",
          "name": "",
          "type": "address"
        }
      ],
      "stateMutability": "view",
      "type": "function"
    },
    {
      "inputs": [],
      "name": "totalSupply",
      "outputs": [
        {
          "internalType": "uint256",
          "name": "",
          "type": "uint256"
        }
      ],
      "stateMutability": "view",
      "type": "function"
    },
    {
      "inputs": [
        {
          "internalType": "address",
          "name": "to",
          "type": "address"
        },
        {
          "internalType": "uint256",
          "name": "value",
          "type": "uint256"
        }
      ],
      "name": "transfer",
      "outputs": [
        {
          "internalType": "bool",
          "name": "",
          "type": "bool"
        }
      ],
      "stateMutability": "nonpayable",
      "type": "function"
    },
    {
      "inputs": [
        {
          "internalType": "address",
          "name": "from",
          "type": "address"
        },
        {
          "internalType": "address",
          "name": "to",
          "type": "address"
        },
        {
          "internalType": "uint256",
          "name": "value",
          "type": "uint256"
        }
      ],
      "name": "transferFrom",
      "outputs": [
        {
          "internalType": "bool",
          "name": "",
          "type": "bool"
        }
      ],
      "stateMutability": "nonpayable",
      "type": "function"
    },
    {
      "inputs": [
        {
          "internalType": "address",
          "name": "newOwner",
          "type": "address"
        }
      ],
      "name": "transferOwnership",
      "outputs": [],
      "stateMutability": "nonpayable",
      "type": "function"
    },
    {
      "inputs": [],
      "name": "unpauseBridge",
      "outputs": [],
      "stateMutability": "nonpayable",
      "type": "function"
    },
    {
      "inputs": [
        {
          "internalType": "string",
          "name": "name_",
          "type": "string"
        },
        {
          "internalType": "string",
          "name": "symbol_",
          "type": "string"
        }
      ],
      "name": "updateTokenSymbol",
      "outputs": [],
      "stateMutability": "nonpayable",
      "type": "function"
    }
  ],
  "transactionHash": "0x6fbff2a5fdfc33b42552c906338d664bcb9a48c081693f8214760c8c12af0a97",
  "args": [
    "0xcb566e3B6934Fa77258d68ea18E931fa75e1aaAa"
  ],
  "numDeployments": 1,
  "solcInputHash": "cf3e4cb48291e06ac75d046f1cfa7656",
  "bytecode": "0x60c06040523480156200001157600080fd5b50604051620048503803806200485083398101604081905262000034916200012b565b6001600160a01b038116608052806012816200005260068362000173565b6200005f90600a62000292565b60a052506200007091505062000077565b50620002a3565b7ff0c57e16840df040f15088dc2f81fe391c3923bec73e23a9662efc9c229c6a00805468010000000000000000900460ff1615620000c85760405163f92ee8a960e01b815260040160405180910390fd5b80546001600160401b0390811614620001285780546001600160401b0319166001600160401b0390811782556040519081527fc7f505b2f371ae2175ee4913f4499e1f2633a7b5936321eed1cdaeb6115181d29060200160405180910390a15b50565b6000602082840312156200013e57600080fd5b81516001600160a01b03811681146200015657600080fd5b9392505050565b634e487b7160e01b600052601160045260246000fd5b60ff82811682821603908111156200018f576200018f6200015d565b92915050565b600181815b80851115620001d6578160001904821115620001ba57620001ba6200015d565b80851615620001c857918102915b93841c93908002906200019a565b509250929050565b600082620001ef575060016200018f565b81620001fe575060006200018f565b8160018114620002175760028114620002225762000242565b60019150506200018f565b60ff8411156200023657620002366200015d565b50506001821b6200018f565b5060208310610133831016604e8410600b841016171562000267575081810a6200018f565b62000273838362000195565b80600019048211156200028a576200028a6200015d565b029392505050565b60006200015660ff841683620001de565b60805160a0516145416200030f600039600081816109a101528181612b6001528181612bd50152612de50152600081816108120152818161101a01528181611b8501528181612055015281816123f10152818161273801528181612fdd015261309601526145416000f3fe6080604052600436106103c35760003560e01c80637dd0480f116101f2578063c272198d1161010d578063dd62ed3e116100a0578063f51b1aca1161006f578063f51b1aca14610c65578063fb1bb9de14610c85578063fc0c546a14610721578063ff7bd03d14610cb957600080fd5b8063dd62ed3e14610bd1578063e63ab1e914610bf1578063e96e38e214610c25578063f2fde38b14610c4557600080fd5b8063d4243885116100dc578063d424388514610b3d578063d539139314610b5d578063d547741f14610b91578063d9afa16014610bb157600080fd5b8063c272198d14610ac9578063c7c7f5b314610ae9578063ca5eb5e114610b0a578063d045a0dc14610b2a57600080fd5b8063a82f143c11610185578063b98bd07011610154578063b98bd07014610a36578063bb0b6a5314610a56578063bc70b35414610a96578063bd815db014610ab657600080fd5b8063a82f143c146109ec578063a9059cbb14610a01578063b731ea0a14610a21578063b92d0eff1461072157600080fd5b806395d89b41116101c157806395d89b411461097a578063963efcaa1461098f5780639f68b964146109c3578063a217fddf146109d757600080fd5b80637dd0480f1461091c578063857749b0146109315780638da5cb5b1461094557806391d148541461095a57600080fd5b80633400288b116102e25780635a0dfe4d11610275578063703d376811610244578063703d37681461085457806370a0823114610889578063715018a6146108cc5780637d25a05e146108e157600080fd5b80635a0dfe4d146107975780635c975abb146107db5780635e280f11146108005780636fc1b31e1461083457600080fd5b806351c32a88116102b157806351c32a88146106bf57806352ae2879146107215780635535d4611461073457806355b56c0c1461075457600080fd5b80633400288b1461063257806336568abe146106525780633b6f743b1461067257806340c10f191461069f57600080fd5b8063156a0d0f1161035a57806323b872dd1161032957806323b872dd14610593578063248a9ca3146105b35780632f2ff15d146105f0578063313ce5671461061057600080fd5b8063156a0d0f146104f857806317442b701461051f57806318160ddd146105405780631f5e13341461057e57600080fd5b80630d35b415116103965780630d35b41514610461578063111ecdad1461049057806313137d65146104bd578063134d4f25146104d057600080fd5b806301ffc9a7146103c857806306fdde03146103fd578063077f224a1461041f578063095ea7b314610441575b600080fd5b3480156103d457600080fd5b506103e86103e33660046132bc565b610cd9565b60405190151581526020015b60405180910390f35b34801561040957600080fd5b50610412610d10565b6040516103f49190613336565b34801561042b57600080fd5b5061043f61043a36600461346b565b610dd3565b005b34801561044d57600080fd5b506103e861045c3660046134e2565b610efa565b34801561046d57600080fd5b5061048161047c366004613526565b610f12565b6040516103f49392919061355a565b34801561049c57600080fd5b506104a5610fe3565b6040516001600160a01b0390911681526020016103f4565b61043f6104cb36600461364d565b611018565b3480156104dc57600080fd5b506104e5600281565b60405161ffff90911681526020016103f4565b34801561050457600080fd5b506040805162b9270b60e21b815260016020820152016103f4565b34801561052b57600080fd5b506040805160018082526020820152016103f4565b34801561054c57600080fd5b507f52c63247e1f47db19d5ce0460030c497f067ca4cebf71ba98eeadabe20bace02545b6040519081526020016103f4565b34801561058a57600080fd5b506104e5600181565b34801561059f57600080fd5b506103e86105ae3660046136ec565b6110d8565b3480156105bf57600080fd5b506105706105ce36600461372d565b60009081526000805160206144cc833981519152602052604090206001015490565b3480156105fc57600080fd5b5061043f61060b366004613746565b6110fe565b34801561061c57600080fd5b5060125b60405160ff90911681526020016103f4565b34801561063e57600080fd5b5061043f61064d36600461378f565b611115565b34801561065e57600080fd5b5061043f61066d366004613746565b611182565b34801561067e57600080fd5b5061069261068d3660046137b9565b6111b5565b6040516103f491906137ff565b3480156106ab57600080fd5b5061043f6106ba3660046134e2565b61121c565b3480156106cb57600080fd5b506107016106da366004613816565b60006020819052908152604090208054600182015460028301546003909301549192909184565b6040805194855260208501939093529183015260608201526080016103f4565b34801561072d57600080fd5b50306104a5565b34801561074057600080fd5b5061041261074f366004613843565b611250565b34801561076057600080fd5b5061070161076f366004613816565b6001602081905260009182526040909120805491810154600282015460039092015490919084565b3480156107a357600080fd5b506103e86107b236600461378f565b63ffffffff9190911660009081526000805160206144ac83398151915260205260409020541490565b3480156107e757600080fd5b506000805160206144ec8339815191525460ff166103e8565b34801561080c57600080fd5b506104a57f000000000000000000000000000000000000000000000000000000000000000081565b34801561084057600080fd5b5061043f61084f366004613876565b61132b565b34801561086057600080fd5b5061087461086f366004613816565b6113a7565b604080519283526020830191909152016103f4565b34801561089557600080fd5b506105706108a4366004613876565b6001600160a01b0316600090815260008051602061448c833981519152602052604090205490565b3480156108d857600080fd5b5061043f611407565b3480156108ed57600080fd5b506109046108fc36600461378f565b600092915050565b6040516001600160401b0390911681526020016103f4565b34801561092857600080fd5b5061043f61141b565b34801561093d57600080fd5b506006610620565b34801561095157600080fd5b506104a5611450565b34801561096657600080fd5b506103e8610975366004613746565b611479565b34801561098657600080fd5b506104126114b1565b34801561099b57600080fd5b506105707f000000000000000000000000000000000000000000000000000000000000000081565b3480156109cf57600080fd5b5060006103e8565b3480156109e357600080fd5b50610570600081565b3480156109f857600080fd5b5061043f6114f0565b348015610a0d57600080fd5b506103e8610a1c3660046134e2565b611522565b348015610a2d57600080fd5b506104a5611530565b348015610a4257600080fd5b5061043f610a513660046138d7565b611559565b348015610a6257600080fd5b50610570610a71366004613816565b63ffffffff1660009081526000805160206144ac833981519152602052604090205490565b348015610aa257600080fd5b50610412610ab1366004613918565b6116da565b61043f610ac43660046138d7565b611878565b348015610ad557600080fd5b50610874610ae4366004613816565b611a0f565b610afc610af7366004613978565b611a64565b6040516103f49291906139da565b348015610b1657600080fd5b5061043f610b25366004613876565b611b5e565b61043f610b3836600461364d565b611be4565b348015610b4957600080fd5b5061043f610b58366004613876565b611c13565b348015610b6957600080fd5b506105707f9f2df0fed2c77648de5860a4cc508cd0818c85b8b8a1ab4ceeef8d981c8956a681565b348015610b9d57600080fd5b5061043f610bac366004613746565b611c87565b348015610bbd57600080fd5b5061043f610bcc366004613a2c565b611c8f565b348015610bdd57600080fd5b50610570610bec366004613a8f565b611ce6565b348015610bfd57600080fd5b506105707f65d7a28e3265b37a6474929f336521b332c1681b933f6cb9f3376673440d862a81565b348015610c3157600080fd5b5061043f610c40366004613abd565b611d30565b348015610c5157600080fd5b5061043f610c60366004613876565b611d97565b348015610c7157600080fd5b5061043f610c80366004613abd565b611dd2565b348015610c9157600080fd5b506105707f427da25fe773164f88948d3e215c94b6554e2ed5e5f203a821c9f2f6131cf75a81565b348015610cc557600080fd5b506103e8610cd4366004613b31565b611e35565b60006001600160e01b03198216637965db0b60e01b1480610d0a57506301ffc9a760e01b6001600160e01b03198316145b92915050565b7f52c63247e1f47db19d5ce0460030c497f067ca4cebf71ba98eeadabe20bace03805460609160008051602061448c83398151915291610d4f90613b4d565b80601f0160208091040260200160405190810160405280929190818152602001828054610d7b90613b4d565b8015610dc85780601f10610d9d57610100808354040283529160200191610dc8565b820191906000526020600020905b815481529060010190602001808311610dab57829003601f168201915b505050505091505090565b7ff0c57e16840df040f15088dc2f81fe391c3923bec73e23a9662efc9c229c6a008054600160401b810460ff1615906001600160401b0316600081158015610e185750825b90506000826001600160401b03166001148015610e345750303b155b905081158015610e42575080155b15610e605760405163f92ee8a960e01b815260040160405180910390fd5b845467ffffffffffffffff191660011785558315610e8a57845460ff60401b1916600160401b1785555b610e95888888611e53565b610e9e86611e6e565b610ea9600087611e7f565b508315610ef057845460ff60401b19168555604051600181527fc7f505b2f371ae2175ee4913f4499e1f2633a7b5936321eed1cdaeb6115181d29060200160405180910390a15b5050505050505050565b600033610f08818585611f24565b5060019392505050565b60408051808201909152600080825260208201526060610f45604051806040016040528060008152602001600081525090565b60408051808201825260008082526001600160401b03602080840182905284518381529081019094529195509182610fa0565b604080518082019091526000815260606020820152815260200190600190039081610f785790505b509350600080610fc5604089013560608a0135610fc060208c018c613816565b611f31565b60408051808201909152918252602082015296989597505050505050565b6000807f41db8a78b0206aba5c54bcbfc2bda0d84082a84eb88e680379a57b9e9f653c005b546001600160a01b031692915050565b7f00000000000000000000000000000000000000000000000000000000000000006001600160a01b03163314611068576040516391ac5e4f60e01b81523360048201526024015b60405180910390fd5b602087018035906110829061107d908a613816565b611f75565b146110c0576110946020880188613816565b60405163309afaf360e21b815263ffffffff90911660048201526020880135602482015260440161105f565b6110cf87878787878787611fc0565b50505050505050565b6000336110e6858285612127565b6110f1858585612188565b60019150505b9392505050565b6111066121e7565b6111108282611e7f565b505050565b61111d6121e7565b63ffffffff821660008181526000805160206144ac833981519152602081815260409283902085905582519384528301849052917f238399d427b947898edb290f5ff0f9109849b1c3ba196a42e35f00c50a54b98b91015b60405180910390a1505050565b6001600160a01b03811633146111ab5760405163334bd91960e11b815260040160405180910390fd5b6111108282612219565b604080518082019091526000808252602082015260006111e560408501356060860135610fc06020880188613816565b9150506000806111f58684612295565b909250905061121261120a6020880188613816565b8383886123db565b9695505050505050565b7f9f2df0fed2c77648de5860a4cc508cd0818c85b8b8a1ab4ceeef8d981c8956a6611246816124bc565b61111083836124c6565b63ffffffff821660009081527f8d2bda5d9f6ffb5796910376005392955773acee5548d0fcdb10e7c264ea00006020818152604080842061ffff86168552909152909120805460609291906112a490613b4d565b80601f01602080910402602001604051908101604052809291908181526020018280546112d090613b4d565b801561131d5780601f106112f25761010080835404028352916020019161131d565b820191906000526020600020905b81548152906001019060200180831161130057829003601f168201915b505050505091505092915050565b6113336121e7565b7f41db8a78b0206aba5c54bcbfc2bda0d84082a84eb88e680379a57b9e9f653c0080546001600160a01b0319166001600160a01b03831690811782556040519081527ff0be4f1e87349231d80c36b33f9e8639658eeaf474014dee15a3e6a4d4414197906020015b60405180910390a15050565b63ffffffff811660009081526001602081815260408084208151608081018352815480825294820154938101849052600282015492810183905260039091015460608201819052859491936113fd9390916124fc565b9250925050915091565b61140f6121e7565b611419600061257c565b565b7f65d7a28e3265b37a6474929f336521b332c1681b933f6cb9f3376673440d862a611445816124bc565b61144d6125ed565b50565b6000807f9016d09d72d40fdae2fd8ceac6b6234c7706214fd39c1cd1e609a0528c199300611008565b60009182526000805160206144cc833981519152602090815260408084206001600160a01b0393909316845291905290205460ff1690565b7f52c63247e1f47db19d5ce0460030c497f067ca4cebf71ba98eeadabe20bace04805460609160008051602061448c83398151915291610d4f90613b4d565b7f427da25fe773164f88948d3e215c94b6554e2ed5e5f203a821c9f2f6131cf75a61151a816124bc565b61144d612651565b600033610f08818585612188565b6000807fefb041d771d6daaa55702fff6eb740d63ba559a75d2d1d3e151c78ff2480b600611008565b6115616121e7565b7f8d2bda5d9f6ffb5796910376005392955773acee5548d0fcdb10e7c264ea000060005b828110156116a8576115c78484838181106115a2576115a2613b81565b90506020028101906115b49190613b97565b6115c2906040810190613bb7565b612697565b8383828181106115d9576115d9613b81565b90506020028101906115eb9190613b97565b6115f9906040810190613bb7565b83600087878681811061160e5761160e613b81565b90506020028101906116209190613b97565b61162e906020810190613816565b63ffffffff1663ffffffff168152602001908152602001600020600087878681811061165c5761165c613b81565b905060200281019061166e9190613b97565b61167f906040810190602001613bfd565b61ffff16815260208101919091526040016000209161169f919083613c68565b50600101611585565b507fbe4864a8e820971c0247f5992e2da559595f7bf076a21cb5928d443d2a13b6748383604051611175929190613d50565b63ffffffff841660009081527f8d2bda5d9f6ffb5796910376005392955773acee5548d0fcdb10e7c264ea00006020818152604080842061ffff8816855290915282208054606093919061172d90613b4d565b80601f016020809104026020016040519081016040528092919081815260200182805461175990613b4d565b80156117a65780601f1061177b576101008083540402835291602001916117a6565b820191906000526020600020905b81548152906001019060200180831161178957829003601f168201915b5050505050905080516000036117f75784848080601f016020809104026020016040519081016040528093929190818152602001838380828437600092019190915250929550611870945050505050565b60008490036118095791506118709050565b600284106118535761181b8585612697565b806118298560028189613e34565b60405160200161183b93929190613e5e565b60405160208183030381529060405292505050611870565b8484604051639a6d49cd60e01b815260040161105f929190613e86565b949350505050565b60005b8181101561198e573683838381811061189657611896613b81565b90506020028101906118a89190613e9a565b90506118e86118ba6020830183613816565b602083013563ffffffff9190911660009081526000805160206144ac83398151915260205260409020541490565b6118f25750611986565b3063d045a0dc60c08301358360a0810135611911610100830183613bb7565b611922610100890160e08a01613876565b6119306101208a018a613bb7565b6040518963ffffffff1660e01b81526004016119529796959493929190613ec6565b6000604051808303818588803b15801561196b57600080fd5b505af115801561197f573d6000803e3d6000fd5b5050505050505b60010161187b565b50336001600160a01b0316638e9e70996040518163ffffffff1660e01b8152600401600060405180830381865afa1580156119cd573d6000803e3d6000fd5b505050506040513d6000823e601f3d908101601f191682016040526119f59190810190613f4c565b604051638351eea760e01b815260040161105f9190613336565b63ffffffff8116600090815260208181526040808320815160808101835281548082526001830154948201859052600283015493820184905260039092015460608201819052859491936113fd9392916124fc565b611a6c613275565b6040805180820190915260008082526020820152600080611aa260408801356060890135611a9d60208b018b613816565b6126d9565b91509150600080611ab38984612295565b9092509050611adf611ac860208b018b613816565b8383611ad9368d90038d018d613fb9565b8b612705565b60408051808201909152858152602080820186905282519298509096503391907f85496b760a4b7f8d66384b9df21b381f5d1b1e79f229a47aaf4c232edc2fe59a90611b2d908d018d613816565b6040805163ffffffff909216825260208201899052810187905260600160405180910390a350505050935093915050565b611b666121e7565b60405163ca5eb5e160e01b81526001600160a01b0382811660048301527f0000000000000000000000000000000000000000000000000000000000000000169063ca5eb5e190602401600060405180830381600087803b158015611bc957600080fd5b505af1158015611bdd573d6000803e3d6000fd5b5050505050565b333014611c045760405163029a949d60e31b815260040160405180910390fd5b6110cf878787878787876110c0565b611c1b6121e7565b7fefb041d771d6daaa55702fff6eb740d63ba559a75d2d1d3e151c78ff2480b60080546001600160a01b0319166001600160a01b03831690811782556040519081527fd48d879cef83a1c0bdda516f27b13ddb1b3f8bbac1c9e1511bb2a659c24277609060200161139b565b6111ab6121e7565b611c976121e7565b60008051602061448c8339815191527f52c63247e1f47db19d5ce0460030c497f067ca4cebf71ba98eeadabe20bace03611cd18482613feb565b5060048101611ce08382613feb565b50505050565b6001600160a01b0391821660009081527f52c63247e1f47db19d5ce0460030c497f067ca4cebf71ba98eeadabe20bace016020908152604080832093909416825291909152205490565b611d386121e7565b611d938282808060200260200160405190810160405280939291908181526020016000905b82821015611d8957611d7a606083028601368190038101906140aa565b81526020019060010190611d5d565b5050505050612810565b5050565b611d9f6121e7565b6001600160a01b038116611dc957604051631e4fbdf760e01b81526000600482015260240161105f565b61144d8161257c565b611dda6121e7565b611d938282808060200260200160405190810160405280939291908181526020016000905b82821015611e2b57611e1c606083028601368190038101906140aa565b81526020019060010190611dff565b5050505050612908565b600060208201803590611e4c90610a719085613816565b1492915050565b611e5b612a01565b611e658383612a4a565b61111081612a5c565b611e76612a01565b61144d81612a6d565b60006000805160206144cc833981519152611e9a8484611479565b611f1a576000848152602082815260408083206001600160a01b03871684529091529020805460ff19166001179055611ed03390565b6001600160a01b0316836001600160a01b0316857f2f8788117e7eff1d82e926ec794901d17c78024a50270940304540a733656f0d60405160405180910390a46001915050610d0a565b6000915050610d0a565b6111108383836001612a75565b600080611f3d85612b5c565b915081905083811015611f6d576040516371c4efed60e01b8152600481018290526024810185905260440161105f565b935093915050565b63ffffffff811660009081526000805160206144ac83398151915260208190526040822054806110f75760405163f6ff4fb760e01b815263ffffffff8516600482015260240161105f565b6000611fd2611fcf8787612b93565b90565b90506000611ffe82611fec611fe78a8a612bab565b612bce565b611ff960208d018d613816565b612c03565b905060288611156120c557600061203b61201e60608c0160408d016140ed565b61202b60208d018d613816565b846120368c8c612c23565b612c6e565b604051633e5ac80960e11b81529091506001600160a01b037f00000000000000000000000000000000000000000000000000000000000000001690637cb59012906120919086908d90600090879060040161410a565b600060405180830381600087803b1580156120ab57600080fd5b505af11580156120bf573d6000803e3d6000fd5b50505050505b6001600160a01b038216887fefed6d3500546b29533b128a29e3a94d70788727f0507505ac12eaf2e578fd9c6120fe60208d018d613816565b6040805163ffffffff9092168252602082018690520160405180910390a3505050505050505050565b60006121338484611ce6565b9050600019811015611ce0578181101561217957604051637dc7a0d960e11b81526001600160a01b0384166004820152602481018290526044810183905260640161105f565b611ce084848484036000612a75565b6001600160a01b0383166121b257604051634b637e8f60e11b81526000600482015260240161105f565b6001600160a01b0382166121dc5760405163ec442f0560e01b81526000600482015260240161105f565b611110838383612ca0565b336121f0611450565b6001600160a01b0316146114195760405163118cdaa760e01b815233600482015260240161105f565b60006000805160206144cc8339815191526122348484611479565b15611f1a576000848152602082815260408083206001600160a01b0387168085529252808320805460ff1916905551339287917ff6391f5c32d9c69d2a47ea670b442974b53935d1edc7fd64eb21e047a839171b9190a46001915050610d0a565b60608060006122f285602001356122ab86612dde565b6122b860a0890189613bb7565b8080601f016020809104026020016040519081016040528093929190818152602001838380828437600092019190915250612e0a92505050565b9093509050600081612305576001612308565b60025b905061232861231a6020880188613816565b82610ab160808a018a613bb7565b7f41db8a78b0206aba5c54bcbfc2bda0d84082a84eb88e680379a57b9e9f653c008054919450906001600160a01b0316156123d157805460405163043a78eb60e01b81526001600160a01b039091169063043a78eb9061238e908890889060040161413b565b602060405180830381865afa1580156123ab573d6000803e3d6000fd5b505050506040513d601f19601f820116820180604052508101906123cf9190614160565b505b5050509250929050565b60408051808201909152600080825260208201527f00000000000000000000000000000000000000000000000000000000000000006001600160a01b031663ddc28c586040518060a001604052808863ffffffff16815260200161243e89611f75565b8152602001878152602001868152602001851515815250306040518363ffffffff1660e01b815260040161247392919061417d565b6040805180830381865afa15801561248f573d6000803e3d6000fd5b505050506040513d601f19601f820116820180604052508101906124b39190614226565b95945050505050565b61144d8133612e84565b6001600160a01b0382166124f05760405163ec442f0560e01b81526000600482015260240161105f565b611d9360008383612ca0565b6000808061250a8642614258565b905083811061251f5760009250849150612572565b60008461252c838861426b565b6125369190614282565b90508088111561254f5761254a8189614258565b612552565b60005b93508386111561256b576125668487614258565b61256e565b60005b9250505b5094509492505050565b7f9016d09d72d40fdae2fd8ceac6b6234c7706214fd39c1cd1e609a0528c19930080546001600160a01b031981166001600160a01b03848116918217845560405192169182907f8be0079c531659141344cd1fd0a4f28419497f9722a3daafe3b4186f6b6457e090600090a3505050565b6125f5612ebd565b6000805160206144ec833981519152805460ff191660011781557f62e78cea01bee320cd4e420270b5ea74000d11b0c9f74754ebdbfc544b05a258335b6040516001600160a01b0390911681526020015b60405180910390a150565b612659612eee565b6000805160206144ec833981519152805460ff191681557f5db9ee0a495bf2e6ff9c91a7834c1ba4fdd244a5e8aa4e537bd38aeae4b073aa33612632565b60006126a66002828486613e34565b6126af916142a4565b60f01c905060038114611110578282604051639a6d49cd60e01b815260040161105f929190613e86565b6000806126e4612ebd565b6126ee8386612f1e565b6126f9858585612f94565b91509150935093915050565b61270d613275565b600061271c8460000151612fb1565b602085015190915015612736576127368460200151612fd9565b7f00000000000000000000000000000000000000000000000000000000000000006001600160a01b0316632637a450826040518060a001604052808b63ffffffff1681526020016127868c611f75565b81526020018a815260200189815260200160008960200151111515815250866040518463ffffffff1660e01b81526004016127c292919061417d565b60806040518083038185885af11580156127e0573d6000803e3d6000fd5b50505050506040513d601f19601f8201168201806040525081019061280591906142d4565b979650505050505050565b60005b81518110156128d857600080600084848151811061283357612833613b81565b60200260200101516000015163ffffffff1663ffffffff168152602001908152602001600020905061288383838151811061287057612870613b81565b6020026020010151600001516000612f1e565b82828151811061289557612895613b81565b60200260200101516020015181600201819055508282815181106128bb576128bb613b81565b602090810291909101015160400151600390910155600101612813565b507f55254e344b7fc8e2e038c1f7f20a1c7afe659c1a3bbfc4e35dd1ca9bba0ca0a081604051612646919061431e565b60005b81518110156129d15760006001600084848151811061292c5761292c613b81565b60200260200101516000015163ffffffff1663ffffffff168152602001908152602001600020905061297c83838151811061296957612969613b81565b60200260200101516000015160006130bb565b82828151811061298e5761298e613b81565b60200260200101516020015181600201819055508282815181106129b4576129b4613b81565b60209081029190910101516040015160039091015560010161290b565b507f983af742b0b5ca79aa5c0be76cea126e1baf3139ecd04624deac13853c4bebde81604051612646919061431e565b7ff0c57e16840df040f15088dc2f81fe391c3923bec73e23a9662efc9c229c6a0054600160401b900460ff1661141957604051631afcd79f60e31b815260040160405180910390fd5b612a52612a01565b611d938282613118565b612a64612a01565b61144d81613120565b611d9f612a01565b60008051602061448c8339815191526001600160a01b038516612aae5760405163e602df0560e01b81526000600482015260240161105f565b6001600160a01b038416612ad857604051634a1406b160e11b81526000600482015260240161105f565b6001600160a01b03808616600090815260018301602090815260408083209388168352929052208390558115611bdd57836001600160a01b0316856001600160a01b03167f8c5be1e5ebec7d5bd14f71427d1e84f3dd0314c0f7b2291e5b200ac8c7c3b92585604051612b4d91815260200190565b60405180910390a35050505050565b60007f0000000000000000000000000000000000000000000000000000000000000000612b898184614282565b610d0a919061426b565b6000612ba26020828486613e34565b6110f79161437d565b6000612bbb602860208486613e34565b612bc49161439b565b60c01c9392505050565b6000610d0a7f00000000000000000000000000000000000000000000000000000000000000006001600160401b03841661426b565b6000612c0d612ebd565b612c1782846130bb565b61187084846000613131565b6060612c328260288186613e34565b8080601f016020809104026020016040519081016040528093929190818152602001838380828437600092019190915250929695505050505050565b606084848484604051602001612c8794939291906143c9565b6040516020818303038152906040529050949350505050565b60008051602061448c8339815191526001600160a01b038416612cdc5781816002016000828254612cd19190614418565b90915550612d4e9050565b6001600160a01b03841660009081526020829052604090205482811015612d2f5760405163391434e360e21b81526001600160a01b0386166004820152602481018290526044810184905260640161105f565b6001600160a01b03851660009081526020839052604090209083900390555b6001600160a01b038316612d6c576002810180548390039055612d8b565b6001600160a01b03831660009081526020829052604090208054830190555b826001600160a01b0316846001600160a01b03167fddf252ad1be2c89b69c2b068fc378daa952ba7f163c4a11628f55a4df523b3ef84604051612dd091815260200190565b60405180910390a350505050565b6000610d0a7f000000000000000000000000000000000000000000000000000000000000000083614282565b8051606090151580612e53578484604051602001612e3f92919091825260c01b6001600160c01b031916602082015260280190565b604051602081830303815290604052612e7a565b84843385604051602001612e6a949392919061442b565b6040516020818303038152906040525b9150935093915050565b612e8e8282611479565b611d935760405163e2517d3f60e01b81526001600160a01b03821660048201526024810183905260440161105f565b6000805160206144ec8339815191525460ff16156114195760405163d93c066560e01b815260040160405180910390fd5b6000805160206144ec8339815191525460ff1661141957604051638dfc202b60e01b815260040160405180910390fd5b63ffffffff8216600090815260208190526040812080546001820154600283015460038401549394938493612f5693909290916124fc565b9150915080841115612f7b576040516324292aa760e01b815260040160405180910390fd5b612f858483614418565b83555050426001909101555050565b600080612fa2858585611f31565b9092509050611f6d3383613145565b6000813414612fd5576040516304fb820960e51b815234600482015260240161105f565b5090565b60007f00000000000000000000000000000000000000000000000000000000000000006001600160a01b031663e4fe1d946040518163ffffffff1660e01b8152600401602060405180830381865afa158015613039573d6000803e3d6000fd5b505050506040513d601f19601f8201168201806040525081019061305d919061446e565b90506001600160a01b038116613086576040516329b99a9560e11b815260040160405180910390fd5b611d936001600160a01b038216337f00000000000000000000000000000000000000000000000000000000000000008561317b565b63ffffffff8216600090815260016020819052604082208054918101546002820154600383015492949384936130f3939192906124fc565b9150915080841115612f7b57604051636a526abb60e01b815260040160405180910390fd5b611c97612a01565b613128612a01565b61144d816131d5565b600061313d84846124c6565b509092915050565b6001600160a01b03821661316f57604051634b637e8f60e11b81526000600482015260240161105f565b611d9382600083612ca0565b604080516001600160a01b0385811660248301528416604482015260648082018490528251808303909101815260849091019091526020810180516001600160e01b03166323b872dd60e01b179052611ce0908590613204565b6131dd612a01565b6001600160a01b038116611b6657604051632d618d8160e21b815260040160405180910390fd5b600080602060008451602086016000885af180613227576040513d6000823e3d81fd5b50506000513d9150811561323f57806001141561324c565b6001600160a01b0384163b155b15611ce057604051635274afe760e01b81526001600160a01b038516600482015260240161105f565b60405180606001604052806000801916815260200160006001600160401b031681526020016132b7604051806040016040528060008152602001600081525090565b905290565b6000602082840312156132ce57600080fd5b81356001600160e01b0319811681146110f757600080fd5b60005b838110156133015781810151838201526020016132e9565b50506000910152565b600081518084526133228160208601602086016132e6565b601f01601f19169290920160200192915050565b6020815260006110f7602083018461330a565b634e487b7160e01b600052604160045260246000fd5b604080519081016001600160401b038111828210171561338157613381613349565b60405290565b604051606081016001600160401b038111828210171561338157613381613349565b604051601f8201601f191681016001600160401b03811182821017156133d1576133d1613349565b604052919050565b60006001600160401b038211156133f2576133f2613349565b50601f01601f191660200190565b600082601f83011261341157600080fd5b813561342461341f826133d9565b6133a9565b81815284602083860101111561343957600080fd5b816020850160208301376000918101602001919091529392505050565b6001600160a01b038116811461144d57600080fd5b60008060006060848603121561348057600080fd5b83356001600160401b038082111561349757600080fd5b6134a387838801613400565b945060208601359150808211156134b957600080fd5b506134c686828701613400565b92505060408401356134d781613456565b809150509250925092565b600080604083850312156134f557600080fd5b823561350081613456565b946020939093013593505050565b600060e0828403121561352057600080fd5b50919050565b60006020828403121561353857600080fd5b81356001600160401b0381111561354e57600080fd5b6118708482850161350e565b8351815260208085015190820152600060a08201604060a0604085015281865180845260c08601915060c08160051b8701019350602080890160005b838110156135d55788870360bf190185528151805188528301518388018790526135c28789018261330a565b9750509382019390820190600101613596565b50508751606088015250505060208501516080850152509050611870565b60006060828403121561352057600080fd5b60008083601f84011261361757600080fd5b5081356001600160401b0381111561362e57600080fd5b60208301915083602082850101111561364657600080fd5b9250929050565b600080600080600080600060e0888a03121561366857600080fd5b61367289896135f3565b96506060880135955060808801356001600160401b038082111561369557600080fd5b6136a18b838c01613605565b909750955060a08a013591506136b682613456565b90935060c089013590808211156136cc57600080fd5b506136d98a828b01613605565b989b979a50959850939692959293505050565b60008060006060848603121561370157600080fd5b833561370c81613456565b9250602084013561371c81613456565b929592945050506040919091013590565b60006020828403121561373f57600080fd5b5035919050565b6000806040838503121561375957600080fd5b82359150602083013561376b81613456565b809150509250929050565b803563ffffffff8116811461378a57600080fd5b919050565b600080604083850312156137a257600080fd5b61350083613776565b801515811461144d57600080fd5b600080604083850312156137cc57600080fd5b82356001600160401b038111156137e257600080fd5b6137ee8582860161350e565b925050602083013561376b816137ab565b815181526020808301519082015260408101610d0a565b60006020828403121561382857600080fd5b6110f782613776565b803561ffff8116811461378a57600080fd5b6000806040838503121561385657600080fd5b61385f83613776565b915061386d60208401613831565b90509250929050565b60006020828403121561388857600080fd5b81356110f781613456565b60008083601f8401126138a557600080fd5b5081356001600160401b038111156138bc57600080fd5b6020830191508360208260051b850101111561364657600080fd5b600080602083850312156138ea57600080fd5b82356001600160401b0381111561390057600080fd5b61390c85828601613893565b90969095509350505050565b6000806000806060858703121561392e57600080fd5b61393785613776565b935061394560208601613831565b925060408501356001600160401b0381111561396057600080fd5b61396c87828801613605565b95989497509550505050565b6000806000838503608081121561398e57600080fd5b84356001600160401b038111156139a457600080fd5b6139b08782880161350e565b9450506040601f19820112156139c557600080fd5b5060208401915060608401356134d781613456565b600060c082019050835182526001600160401b0360208501511660208301526040840151613a15604084018280518252602090810151910152565b5082516080830152602083015160a08301526110f7565b60008060408385031215613a3f57600080fd5b82356001600160401b0380821115613a5657600080fd5b613a6286838701613400565b93506020850135915080821115613a7857600080fd5b50613a8585828601613400565b9150509250929050565b60008060408385031215613aa257600080fd5b8235613aad81613456565b9150602083013561376b81613456565b60008060208385031215613ad057600080fd5b82356001600160401b0380821115613ae757600080fd5b818501915085601f830112613afb57600080fd5b813581811115613b0a57600080fd5b866020606083028501011115613b1f57600080fd5b60209290920196919550909350505050565b600060608284031215613b4357600080fd5b6110f783836135f3565b600181811c90821680613b6157607f821691505b60208210810361352057634e487b7160e01b600052602260045260246000fd5b634e487b7160e01b600052603260045260246000fd5b60008235605e19833603018112613bad57600080fd5b9190910192915050565b6000808335601e19843603018112613bce57600080fd5b8301803591506001600160401b03821115613be857600080fd5b60200191503681900382131561364657600080fd5b600060208284031215613c0f57600080fd5b6110f782613831565b601f821115611110576000816000526020600020601f850160051c81016020861015613c415750805b601f850160051c820191505b81811015613c6057828155600101613c4d565b505050505050565b6001600160401b03831115613c7f57613c7f613349565b613c9383613c8d8354613b4d565b83613c18565b6000601f841160018114613cc75760008515613caf5750838201355b600019600387901b1c1916600186901b178355611bdd565b600083815260209020601f19861690835b82811015613cf85786850135825560209485019460019092019101613cd8565b5086821015613d155760001960f88860031b161c19848701351681555b505060018560011b0183555050505050565b81835281816020850137506000828201602090810191909152601f909101601f19169091010190565b60208082528181018390526000906040808401600586901b8501820187855b88811015613e2657878303603f190184528135368b9003605e19018112613d9557600080fd5b8a01606063ffffffff613da783613776565b16855261ffff613db8898401613831565b168886015286820135601e19833603018112613dd357600080fd5b9091018781019190356001600160401b03811115613df057600080fd5b803603831315613dff57600080fd5b8188870152613e118287018285613d27565b96890196955050509186019150600101613d6f565b509098975050505050505050565b60008085851115613e4457600080fd5b83861115613e5157600080fd5b5050820193919092039150565b60008451613e708184602089016132e6565b8201838582376000930192835250909392505050565b602081526000611870602083018486613d27565b6000823561013e19833603018112613bad57600080fd5b6001600160401b038116811461144d57600080fd5b63ffffffff613ed489613776565b1681526020880135602082015260006040890135613ef181613eb1565b6001600160401b03811660408401525087606083015260e06080830152613f1c60e083018789613d27565b6001600160a01b03861660a084015282810360c0840152613f3e818587613d27565b9a9950505050505050505050565b600060208284031215613f5e57600080fd5b81516001600160401b03811115613f7457600080fd5b8201601f81018413613f8557600080fd5b8051613f9361341f826133d9565b818152856020838501011115613fa857600080fd5b6124b38260208301602086016132e6565b600060408284031215613fcb57600080fd5b613fd361335f565b82358152602083013560208201528091505092915050565b81516001600160401b0381111561400457614004613349565b614018816140128454613b4d565b84613c18565b602080601f83116001811461404d57600084156140355750858301515b600019600386901b1c1916600185901b178555613c60565b600085815260208120601f198616915b8281101561407c5788860151825594840194600190910190840161405d565b508582101561409a5787850151600019600388901b60f8161c191681555b5050505050600190811b01905550565b6000606082840312156140bc57600080fd5b6140c4613387565b6140cd83613776565b815260208301356020820152604083013560408201528091505092915050565b6000602082840312156140ff57600080fd5b81356110f781613eb1565b60018060a01b038516815283602082015261ffff83166040820152608060608201526000611212608083018461330a565b60408152600061414e604083018561330a565b82810360208401526124b3818561330a565b60006020828403121561417257600080fd5b81516110f7816137ab565b6040815263ffffffff8351166040820152602083015160608201526000604084015160a060808401526141b360e084018261330a565b90506060850151603f198483030160a08501526141d0828261330a565b60809690960151151560c08501525050506001600160a01b039190911660209091015290565b60006040828403121561420857600080fd5b61421061335f565b9050815181526020820151602082015292915050565b60006040828403121561423857600080fd5b6110f783836141f6565b634e487b7160e01b600052601160045260246000fd5b81810381811115610d0a57610d0a614242565b8082028115828204841417610d0a57610d0a614242565b60008261429f57634e487b7160e01b600052601260045260246000fd5b500490565b6001600160f01b031981358181169160028510156142cc5780818660020360031b1b83161692505b505092915050565b6000608082840312156142e657600080fd5b6142ee613387565b82518152602083015161430081613eb1565b602082015261431284604085016141f6565b60408201529392505050565b602080825282518282018190526000919060409081850190868401855b82811015614370578151805163ffffffff1685528681015187860152850151858501526060909301929085019060010161433b565b5091979650505050505050565b80356020831015610d0a57600019602084900360031b1b1692915050565b6001600160c01b031981358181169160088510156142cc5760089490940360031b84901b1690921692915050565b6001600160401b0360c01b8560c01b16815263ffffffff60e01b8460e01b16600882015282600c8201526000825161440881602c8501602087016132e6565b91909101602c0195945050505050565b80820180821115610d0a57610d0a614242565b8481526001600160401b0360c01b8460c01b1660208201528260288201526000825161445e8160488501602087016132e6565b9190910160480195945050505050565b60006020828403121561448057600080fd5b81516110f78161345656fe52c63247e1f47db19d5ce0460030c497f067ca4cebf71ba98eeadabe20bace0072ab1bc1039b79dc4724ffca13de82c96834302d3c7e0d4252232d4b2dd8f90002dd7bc7dec4dceedda775e58dd541e08a116c6c53815c0bd028192f7b626800cd5ed15c6e187e77e9aee88184c21f4f2182ab5827cb3b7e07fbedcd63f03300a264697066735822122026313be517677557fdfc2e08f540613bc01adfa64cb3da3665559634adf6f8e864736f6c63430008160033",
  "devdoc": {
    "details": "Extends MintableOFTUpgradeable with pausing and rate limiting functionality",
    "errors": {
      "AccessControlBadConfirmation()": [
        {
          "details": "The caller of a function is not the expected one. NOTE: Don't confuse with {AccessControlUnauthorizedAccount}."
        }
      ],
      "AccessControlUnauthorizedAccount(address,bytes32)": [
        {
          "details": "The `account` is missing a role."
        }
      ],
      "ERC20InsufficientAllowance(address,uint256,uint256)": [
        {
          "details": "Indicates a failure with the `spender`s `allowance`. Used in transfers.",
          "params": {
            "allowance": "Amount of tokens a `spender` is allowed to operate with.",
            "needed": "Minimum amount required to perform a transfer.",
            "spender": "Address that may be allowed to operate on tokens without being their owner."
          }
        }
      ],
      "ERC20InsufficientBalance(address,uint256,uint256)": [
        {
          "details": "Indicates an error related to the current `balance` of a `sender`. Used in transfers.",
          "params": {
            "balance": "Current balance for the interacting account.",
            "needed": "Minimum amount required to perform a transfer.",
            "sender": "Address whose tokens are being transferred."
          }
        }
      ],
      "ERC20InvalidApprover(address)": [
        {
          "details": "Indicates a failure with the `approver` of a token to be approved. Used in approvals.",
          "params": {
            "approver": "Address initiating an approval operation."
          }
        }
      ],
      "ERC20InvalidReceiver(address)": [
        {
          "details": "Indicates a failure with the token `receiver`. Used in transfers.",
          "params": {
            "receiver": "Address to which tokens are being transferred."
          }
        }
      ],
      "ERC20InvalidSender(address)": [
        {
          "details": "Indicates a failure with the token `sender`. Used in transfers.",
          "params": {
            "sender": "Address whose tokens are being transferred."
          }
        }
      ],
      "ERC20InvalidSpender(address)": [
        {
          "details": "Indicates a failure with the `spender` to be approved. Used in approvals.",
          "params": {
            "spender": "Address that may be allowed to operate on tokens without being their owner."
          }
        }
      ],
      "EnforcedPause()": [
        {
          "details": "The operation failed because the contract is paused."
        }
      ],
      "ExpectedPause()": [
        {
          "details": "The operation failed because the contract is not paused."
        }
      ],
      "InvalidInitialization()": [
        {
          "details": "The contract is already initialized."
        }
      ],
      "NotInitializing()": [
        {
          "details": "The contract is not initializing."
        }
      ],
      "OwnableInvalidOwner(address)": [
        {
          "details": "The owner is not a valid owner account. (eg. `address(0)`)"
        }
      ],
      "OwnableUnauthorizedAccount(address)": [
        {
          "details": "The caller account is not authorized to perform an operation."
        }
      ],
      "SafeERC20FailedOperation(address)": [
        {
          "details": "An operation with an ERC-20 token failed."
        }
      ]
    },
    "events": {
      "Approval(address,address,uint256)": {
        "details": "Emitted when the allowance of a `spender` for an `owner` is set by a call to {approve}. `value` is the new allowance."
      },
      "Initialized(uint64)": {
        "details": "Triggered when the contract has been initialized or reinitialized."
      },
      "OutboundRateLimitsChanged((uint32,uint256,uint256)[])": {
        "params": {
          "rateLimitConfigs": "An array of `RateLimitConfig` structs representing the rate limit configurations set. - `peerEid`: The peer endpoint id. - `limit`: This represents the maximum allowed amount within a given window. - `window`: Defines the duration of the rate limiting window."
        }
      },
      "Paused(address)": {
        "details": "Emitted when the pause is triggered by `account`."
      },
      "PreCrimeSet(address)": {
        "details": "Emitted when the preCrime contract address is set.",
        "params": {
          "preCrimeAddress": "The address of the preCrime contract."
        }
      },
      "RoleAdminChanged(bytes32,bytes32,bytes32)": {
        "details": "Emitted when `newAdminRole` is set as ``role``'s admin role, replacing `previousAdminRole` `DEFAULT_ADMIN_ROLE` is the starting admin for all roles, despite {RoleAdminChanged} not being emitted signaling this."
      },
      "RoleGranted(bytes32,address,address)": {
        "details": "Emitted when `account` is granted `role`. `sender` is the account that originated the contract call. This account bears the admin role (for the granted role). Expected in cases where the role was granted using the internal {AccessControl-_grantRole}."
      },
      "RoleRevoked(bytes32,address,address)": {
        "details": "Emitted when `account` is revoked `role`. `sender` is the account that originated the contract call:   - if using `revokeRole`, it is the admin role bearer   - if using `renounceRole`, it is the role bearer (i.e. `account`)"
      },
      "Transfer(address,address,uint256)": {
        "details": "Emitted when `value` tokens are moved from one account (`from`) to another (`to`). Note that `value` may be zero."
      },
      "Unpaused(address)": {
        "details": "Emitted when the pause is lifted by `account`."
      }
    },
    "kind": "dev",
    "methods": {
      "allowInitializePath((uint32,bytes32,uint64))": {
        "details": "This indicates to the endpoint that the OApp has enabled msgs for this particular path to be received.This defaults to assuming if a peer has been set, its initialized. Can be overridden by the OApp if there is other logic to determine this.",
        "params": {
          "origin": "The origin information containing the source endpoint and sender address."
        },
        "returns": {
          "_0": "Whether the path has been initialized."
        }
      },
      "allowance(address,address)": {
        "details": "See {IERC20-allowance}."
      },
      "approvalRequired()": {
        "details": "In the case of OFT where the contract IS the token, approval is NOT required.",
        "returns": {
          "_0": "requiresApproval Needs approval of the underlying token implementation."
        }
      },
      "approve(address,uint256)": {
        "details": "See {IERC20-approve}. NOTE: If `value` is the maximum `uint256`, the allowance is not updated on `transferFrom`. This is semantically equivalent to an infinite approval. Requirements: - `spender` cannot be the zero address."
      },
      "balanceOf(address)": {
        "details": "See {IERC20-balanceOf}."
      },
      "combineOptions(uint32,uint16,bytes)": {
        "details": "If there is an enforced lzReceive option: - {gasLimit: 200k, msg.value: 1 ether} AND a caller supplies a lzReceive option: {gasLimit: 100k, msg.value: 0.5 ether} - The resulting options will be {gasLimit: 300k, msg.value: 1.5 ether} when the message is executed on the remote lzReceive() function.This presence of duplicated options is handled off-chain in the verifier/executor.",
        "params": {
          "_eid": "The endpoint ID.",
          "_extraOptions": "Additional options passed by the caller.",
          "_msgType": "The OAPP message type."
        },
        "returns": {
          "_0": "options The combination of caller specified options AND enforced options."
        }
      },
      "composeMsgSender()": {
        "details": "Applications can optionally choose to implement a separate composeMsg sender that is NOT the bridging layer.The default sender IS the OApp implementer.",
        "returns": {
          "sender": "The address responsible for 'sending' composeMsg's to the Endpoint."
        }
      },
      "constructor": {
        "details": "Constructor for MintableOFT",
        "params": {
          "endpoint": "The layer zero endpoint address"
        }
      },
      "decimals()": {
        "details": "Returns the number of decimals used to get its user representation. For example, if `decimals` equals `2`, a balance of `505` tokens should be displayed to a user as `5.05` (`505 / 10 ** 2`). Tokens usually opt for a value of 18, imitating the relationship between Ether and Wei. This is the default value returned by this function, unless it's overridden. NOTE: This information is only used for _display_ purposes: it in no way affects any of the arithmetic of the contract, including {IERC20-balanceOf} and {IERC20-transfer}."
      },
      "getAmountCanBeReceived(uint32)": {
        "params": {
          "_srcEid": "The source endpoint id."
        },
        "returns": {
          "amountCanBeReceived": "The amount that be received.",
          "inboundAmountInFlight": "The current amount has been received."
        }
      },
      "getAmountCanBeSent(uint32)": {
        "params": {
          "_dstEid": "The destination endpoint id."
        },
        "returns": {
          "amountCanBeSent": "The amount that can be sent.",
          "outboundAmountInFlight": "The current amount that was sent."
        }
      },
      "getRoleAdmin(bytes32)": {
        "details": "Returns the admin role that controls `role`. See {grantRole} and {revokeRole}. To change a role's admin, use {_setRoleAdmin}."
      },
      "grantRole(bytes32,address)": {
        "details": "Overrides the role admin logic from AccessControlUpgradeable to restrict granting roles to the owner"
      },
      "hasRole(bytes32,address)": {
        "details": "Returns `true` if `account` has been granted `role`."
      },
      "initialize(string,string,address)": {
        "details": "Initializes the contract",
        "params": {
          "name": "The name of the token",
          "owner": "The owner of the token",
          "symbol": "The symbol of the token"
        }
      },
      "isPeer(uint32,bytes32)": {
        "details": "Check if the peer is considered 'trusted' by the OApp.Enables OAppPreCrimeSimulator to check whether a potential Inbound Packet is from a trusted source.",
        "params": {
          "_eid": "The endpoint ID to check.",
          "_peer": "The peer to check."
        },
        "returns": {
          "_0": "Whether the peer passed is considered 'trusted' by the OApp."
        }
      },
      "lzReceive((uint32,bytes32,uint64),bytes32,bytes,address,bytes)": {
        "details": "Entry point for receiving messages or packets from the endpoint.Entry point for receiving msg/packet from the LayerZero endpoint.",
        "params": {
          "_executor": "The address of the executor for the received message.",
          "_extraData": "Additional arbitrary data provided by the corresponding executor.",
          "_guid": "The unique identifier for the received LayerZero message.",
          "_message": "The payload of the received message.",
          "_origin": "The origin information containing the source endpoint and sender address.  - srcEid: The source chain endpoint ID.  - sender: The sender address on the src chain.  - nonce: The nonce of the message."
        }
      },
      "lzReceiveAndRevert(((uint32,bytes32,uint64),uint32,address,bytes32,uint256,address,bytes,bytes)[])": {
        "details": "Interface for pre-crime simulations. Always reverts at the end with the simulation results.WARNING: MUST revert at the end with the simulation results.Gives the preCrime implementation the ability to mock sending packets to the lzReceive function, WITHOUT actually executing them.",
        "params": {
          "_packets": "An array of InboundPacket objects representing received packets to be delivered."
        }
      },
      "lzReceiveSimulate((uint32,bytes32,uint64),bytes32,bytes,address,bytes)": {
        "details": "Is effectively an internal function because msg.sender must be address(this). Allows resetting the call stack for 'internal' calls.",
        "params": {
          "_executor": "The executor address for the packet.",
          "_extraData": "Additional data for the packet.",
          "_guid": "The unique identifier of the packet.",
          "_message": "The message payload of the packet.",
          "_origin": "The origin information containing the source endpoint and sender address.  - srcEid: The source chain endpoint ID.  - sender: The sender address on the src chain.  - nonce: The nonce of the message."
        }
      },
      "mint(address,uint256)": {
        "details": "Used by the SyncPool contract in the native minting flow",
        "params": {
          "_account": "The account to mint the tokens to",
          "_amount": "The amount of tokens to mint"
        }
      },
      "name()": {
        "details": "Returns the name of the token."
      },
      "nextNonce(uint32,bytes32)": {
        "details": "_srcEid The source endpoint ID._sender The sender address.The path nonce starts from 1. If 0 is returned it means that there is NO nonce ordered enforcement.Is required by the off-chain executor to determine the OApp expects msg execution is ordered.This is also enforced by the OApp.By default this is NOT enabled. ie. nextNonce is hardcoded to return 0.",
        "returns": {
          "nonce": "The next nonce."
        }
      },
      "oApp()": {
        "details": "Retrieves the address of the OApp contract.The simulator contract is the base contract for the OApp by default.If the simulator is a separate contract, override this function.",
        "returns": {
          "_0": "The address of the OApp contract."
        }
      },
      "oAppVersion()": {
        "returns": {
          "receiverVersion": "The version of the OAppReceiver.sol implementation.",
          "senderVersion": "The version of the OAppSender.sol implementation."
        }
      },
      "oftVersion()": {
        "details": "interfaceId: This specific interface ID is '0x02e49c2c'.version: Indicates a cross-chain compatible msg encoding with other OFTs.If a new feature is added to the OFT cross-chain msg encoding, the version will be incremented. ie. localOFT version(x,1) CAN send messages to remoteOFT version(x,1)",
        "returns": {
          "interfaceId": "The interface ID.",
          "version": "The version."
        }
      },
      "owner()": {
        "details": "Returns the address of the current owner."
      },
      "paused()": {
        "details": "Returns true if the contract is paused, and false otherwise."
      },
      "peers(uint32)": {
        "params": {
          "_eid": "The endpoint ID."
        },
        "returns": {
          "_0": "peer The address of the peer associated with the specified endpoint."
        }
      },
      "preCrime()": {
        "details": "Retrieves the address of the preCrime contract implementation.",
        "returns": {
          "_0": "The address of the preCrime contract."
        }
      },
      "quoteOFT((uint32,bytes32,uint256,uint256,bytes,bytes,bytes))": {
        "params": {
          "_sendParam": "The parameters for the send operation."
        },
        "returns": {
          "oftFeeDetails": "The details of OFT fees.",
          "oftLimit": "The OFT limit information.",
          "oftReceipt": "The OFT receipt information."
        }
      },
      "quoteSend((uint32,bytes32,uint256,uint256,bytes,bytes,bytes),bool)": {
        "details": "MessagingFee: LayerZero msg fee  - nativeFee: The native fee.  - lzTokenFee: The lzToken fee.",
        "params": {
          "_payInLzToken": "Flag indicating whether the caller is paying in the LZ token.",
          "_sendParam": "The parameters for the send() operation."
        },
        "returns": {
          "msgFee": "The calculated LayerZero messaging fee from the send() operation."
        }
      },
      "renounceOwnership()": {
        "details": "Leaves the contract without owner. It will not be possible to call `onlyOwner` functions. Can only be called by the current owner. NOTE: Renouncing ownership will leave the contract without an owner, thereby disabling any functionality that is only available to the owner."
      },
      "renounceRole(bytes32,address)": {
        "details": "Revokes `role` from the calling account. Roles are often managed via {grantRole} and {revokeRole}: this function's purpose is to provide a mechanism for accounts to lose their privileges if they are compromised (such as when a trusted device is misplaced). If the calling account had been revoked `role`, emits a {RoleRevoked} event. Requirements: - the caller must be `callerConfirmation`. May emit a {RoleRevoked} event."
      },
      "revokeRole(bytes32,address)": {
        "details": "Overrides the role admin logic from AccessControlUpgradeable to restrict revoking roles to the owner"
      },
      "send((uint32,bytes32,uint256,uint256,bytes,bytes,bytes),(uint256,uint256),address)": {
        "details": "Executes the send operation.MessagingReceipt: LayerZero msg receipt  - guid: The unique identifier for the sent message.  - nonce: The nonce of the sent message.  - fee: The LayerZero fee incurred for the message.",
        "params": {
          "_fee": "The calculated fee for the send() operation.      - nativeFee: The native fee.      - lzTokenFee: The lzToken fee.",
          "_refundAddress": "The address to receive any excess funds.",
          "_sendParam": "The parameters for the send operation."
        },
        "returns": {
          "msgReceipt": "The receipt for the send operation.",
          "oftReceipt": "The OFT receipt information."
        }
      },
      "setDelegate(address)": {
        "details": "Only the owner/admin of the OApp can call this function.Provides the ability for a delegate to set configs, on behalf of the OApp, directly on the Endpoint contract.",
        "params": {
          "_delegate": "The address of the delegate to be set."
        }
      },
      "setEnforcedOptions((uint32,uint16,bytes)[])": {
        "details": "Sets the enforced options for specific endpoint and message type combinations.Only the owner/admin of the OApp can call this function.Provides a way for the OApp to enforce things like paying for PreCrime, AND/OR minimum dst lzReceive gas amounts etc.These enforced options can vary as the potential options/execution on the remote may differ as per the msgType. eg. Amount of lzReceive() gas necessary to deliver a lzCompose() message adds overhead you dont want to pay if you are only making a standard LayerZero message ie. lzReceive() WITHOUT sendCompose().",
        "params": {
          "_enforcedOptions": "An array of EnforcedOptionParam structures specifying enforced options."
        }
      },
      "setMsgInspector(address)": {
        "details": "Sets the message inspector address for the OFT.This is an optional contract that can be used to inspect both 'message' and 'options'.Set it to address(0) to disable it, or set it to a contract address to enable it.",
        "params": {
          "_msgInspector": "The address of the message inspector."
        }
      },
      "setPeer(uint32,bytes32)": {
        "details": "Only the owner/admin of the OApp can call this function.Indicates that the peer is trusted to send LayerZero messages to this OApp.Set this to bytes32(0) to remove the peer address.Peer is a bytes32 to accommodate non-evm chains.",
        "params": {
          "_eid": "The endpoint ID.",
          "_peer": "The address of the peer to be associated with the corresponding endpoint."
        }
      },
      "setPreCrime(address)": {
        "details": "Sets the preCrime contract address.",
        "params": {
          "_preCrime": "The address of the preCrime contract."
        }
      },
      "sharedDecimals()": {
        "details": "Retrieves the shared decimals of the OFT.Sets an implicit cap on the amount of tokens, over uint64.max() will need some sort of outbound cap / totalSupply cap Lowest common decimal denominator between chains. Defaults to 6 decimal places to provide up to 18,446,744,073,709.551615 units (max uint64). For tokens exceeding this totalSupply(), they will need to override the sharedDecimals function with something smaller. ie. 4 sharedDecimals would be 1,844,674,407,370,955.1615",
        "returns": {
          "_0": "The shared decimals of the OFT."
        }
      },
      "supportsInterface(bytes4)": {
        "details": "See {IERC165-supportsInterface}."
      },
      "symbol()": {
        "details": "Returns the symbol of the token, usually a shorter version of the name."
      },
      "token()": {
        "details": "Retrieves the address of the underlying ERC20 implementation.In the case of OFT, address(this) and erc20 are the same contract.",
        "returns": {
          "_0": "The address of the OFT token."
        }
      },
      "totalSupply()": {
        "details": "See {IERC20-totalSupply}."
      },
      "transfer(address,uint256)": {
        "details": "See {IERC20-transfer}. Requirements: - `to` cannot be the zero address. - the caller must have a balance of at least `value`."
      },
      "transferFrom(address,address,uint256)": {
        "details": "See {IERC20-transferFrom}. Skips emitting an {Approval} event indicating an allowance update. This is not required by the ERC. See {xref-ERC20-_approve-address-address-uint256-bool-}[_approve]. NOTE: Does not update the allowance if the current allowance is the maximum `uint256`. Requirements: - `from` and `to` cannot be the zero address. - `from` must have a balance of at least `value`. - the caller must have allowance for ``from``'s tokens of at least `value`."
      },
      "transferOwnership(address)": {
        "details": "Transfers ownership of the contract to a new account (`newOwner`). Can only be called by the current owner."
      }
    },
    "title": "King mintable upgradeable OFT token",
    "version": 1
  },
  "userdoc": {
    "errors": {
      "OutboundRateLimitExceeded()": [
        {
          "notice": "Error that is thrown when an amount exceeds the rate_limit."
        }
      ]
    },
    "events": {
      "OutboundRateLimitsChanged((uint32,uint256,uint256)[])": {
        "notice": "Emitted when _setRateLimits occurs."
      }
    },
    "kind": "user",
    "methods": {
      "allowInitializePath((uint32,bytes32,uint64))": {
        "notice": "Checks if the path initialization is allowed based on the provided origin."
      },
      "approvalRequired()": {
        "notice": "Indicates whether the OFT contract requires approval of the 'token()' to send."
      },
      "combineOptions(uint32,uint16,bytes)": {
        "notice": "Combines options for a given endpoint and message type."
      },
      "composeMsgSender()": {
        "notice": "Retrieves the address responsible for 'sending' composeMsg's to the Endpoint."
      },
      "endpoint()": {
        "notice": "Retrieves the LayerZero endpoint associated with the OApp."
      },
      "getAmountCanBeReceived(uint32)": {
        "notice": "Get the current amount that can received from this peer endpoint for the given rate limit window."
      },
      "getAmountCanBeSent(uint32)": {
        "notice": "Get the current amount that can be sent to this peer endpoint id for the given rate limit window."
      },
      "mint(address,uint256)": {
        "notice": "Mint function that can only be called by a minter"
      },
      "nextNonce(uint32,bytes32)": {
        "notice": "Retrieves the next nonce for a given source endpoint and sender address."
      },
      "oAppVersion()": {
        "notice": "Retrieves the OApp version information."
      },
      "oftVersion()": {
        "notice": "Retrieves interfaceID and the version of the OFT."
      },
      "peers(uint32)": {
        "notice": "Returns the peer address (OApp instance) associated with a specific endpoint."
      },
      "quoteOFT((uint32,bytes32,uint256,uint256,bytes,bytes,bytes))": {
        "notice": "Provides a quote for OFT-related operations."
      },
      "quoteSend((uint32,bytes32,uint256,uint256,bytes,bytes,bytes),bool)": {
        "notice": "Provides a quote for the send() operation."
      },
      "setDelegate(address)": {
        "notice": "Sets the delegate address for the OApp."
      },
      "setPeer(uint32,bytes32)": {
        "notice": "Sets the peer address (OApp instance) for a corresponding endpoint."
      }
    },
    "version": 1
  },
  "storageLayout": {
    "storage": [
      {
        "astId": 6060,
        "contract": "contracts/KingOFTL2.sol:KingOFTL2",
        "label": "outboundRateLimits",
        "offset": 0,
        "slot": "0",
        "type": "t_mapping(t_uint32,t_struct(RateLimit)6046_storage)"
      },
      {
        "astId": 6065,
        "contract": "contracts/KingOFTL2.sol:KingOFTL2",
        "label": "inboundRateLimits",
        "offset": 0,
        "slot": "1",
        "type": "t_mapping(t_uint32,t_struct(RateLimit)6046_storage)"
      },
      {
        "astId": 6446,
        "contract": "contracts/KingOFTL2.sol:KingOFTL2",
        "label": "__gap",
        "offset": 0,
        "slot": "2",
        "type": "t_array(t_uint256)50_storage"
      }
    ],
    "types": {
      "t_array(t_uint256)50_storage": {
        "base": "t_uint256",
        "encoding": "inplace",
        "label": "uint256[50]",
        "numberOfBytes": "1600"
      },
      "t_mapping(t_uint32,t_struct(RateLimit)6046_storage)": {
        "encoding": "mapping",
        "key": "t_uint32",
        "label": "mapping(uint32 => struct PairwiseRateLimiter.RateLimit)",
        "numberOfBytes": "32",
        "value": "t_struct(RateLimit)6046_storage"
      },
      "t_struct(RateLimit)6046_storage": {
        "encoding": "inplace",
        "label": "struct PairwiseRateLimiter.RateLimit",
        "members": [
          {
            "astId": 6039,
            "contract": "contracts/KingOFTL2.sol:KingOFTL2",
            "label": "amountInFlight",
            "offset": 0,
            "slot": "0",
            "type": "t_uint256"
          },
          {
            "astId": 6041,
            "contract": "contracts/KingOFTL2.sol:KingOFTL2",
            "label": "lastUpdated",
            "offset": 0,
            "slot": "1",
            "type": "t_uint256"
          },
          {
            "astId": 6043,
            "contract": "contracts/KingOFTL2.sol:KingOFTL2",
            "label": "limit",
            "offset": 0,
            "slot": "2",
            "type": "t_uint256"
          },
          {
            "astId": 6045,
            "contract": "contracts/KingOFTL2.sol:KingOFTL2",
            "label": "window",
            "offset": 0,
            "slot": "3",
            "type": "t_uint256"
          }
        ],
        "numberOfBytes": "128"
      },
      "t_uint256": {
        "encoding": "inplace",
        "label": "uint256",
        "numberOfBytes": "32"
      },
      "t_uint32": {
        "encoding": "inplace",
        "label": "uint32",
        "numberOfBytes": "4"
      }
    }
  }
}